{
  "contractName": "NftMarket",
  "abi": [
    {
      "inputs": [],
      "stateMutability": "nonpayable",
      "type": "constructor"
    },
    {
      "anonymous": false,
      "inputs": [
        {
          "indexed": true,
          "internalType": "address",
          "name": "owner",
          "type": "address"
        },
        {
          "indexed": true,
          "internalType": "address",
          "name": "approved",
          "type": "address"
        },
        {
          "indexed": true,
          "internalType": "uint256",
          "name": "tokenId",
          "type": "uint256"
        }
      ],
      "name": "Approval",
      "type": "event"
    },
    {
      "anonymous": false,
      "inputs": [
        {
          "indexed": true,
          "internalType": "address",
          "name": "owner",
          "type": "address"
        },
        {
          "indexed": true,
          "internalType": "address",
          "name": "operator",
          "type": "address"
        },
        {
          "indexed": false,
          "internalType": "bool",
          "name": "approved",
          "type": "bool"
        }
      ],
      "name": "ApprovalForAll",
      "type": "event"
    },
    {
      "anonymous": false,
      "inputs": [
        {
          "indexed": true,
          "internalType": "address",
          "name": "from",
          "type": "address"
        },
        {
          "indexed": true,
          "internalType": "address",
          "name": "to",
          "type": "address"
        },
        {
          "indexed": true,
          "internalType": "uint256",
          "name": "tokenId",
          "type": "uint256"
        }
      ],
      "name": "Transfer",
      "type": "event"
    },
    {
      "inputs": [
        {
          "internalType": "address",
          "name": "to",
          "type": "address"
        },
        {
          "internalType": "uint256",
          "name": "tokenId",
          "type": "uint256"
        }
      ],
      "name": "approve",
      "outputs": [],
      "stateMutability": "nonpayable",
      "type": "function"
    },
    {
      "inputs": [
        {
          "internalType": "address",
          "name": "owner",
          "type": "address"
        }
      ],
      "name": "balanceOf",
      "outputs": [
        {
          "internalType": "uint256",
          "name": "",
          "type": "uint256"
        }
      ],
      "stateMutability": "view",
      "type": "function",
      "constant": true
    },
    {
      "inputs": [
        {
          "internalType": "uint256",
          "name": "tokenId",
          "type": "uint256"
        }
      ],
      "name": "getApproved",
      "outputs": [
        {
          "internalType": "address",
          "name": "",
          "type": "address"
        }
      ],
      "stateMutability": "view",
      "type": "function",
      "constant": true
    },
    {
      "inputs": [
        {
          "internalType": "address",
          "name": "owner",
          "type": "address"
        },
        {
          "internalType": "address",
          "name": "operator",
          "type": "address"
        }
      ],
      "name": "isApprovedForAll",
      "outputs": [
        {
          "internalType": "bool",
          "name": "",
          "type": "bool"
        }
      ],
      "stateMutability": "view",
      "type": "function",
      "constant": true
    },
    {
      "inputs": [],
      "name": "name",
      "outputs": [
        {
          "internalType": "string",
          "name": "",
          "type": "string"
        }
      ],
      "stateMutability": "view",
      "type": "function",
      "constant": true
    },
    {
      "inputs": [
        {
          "internalType": "uint256",
          "name": "tokenId",
          "type": "uint256"
        }
      ],
      "name": "ownerOf",
      "outputs": [
        {
          "internalType": "address",
          "name": "",
          "type": "address"
        }
      ],
      "stateMutability": "view",
      "type": "function",
      "constant": true
    },
    {
      "inputs": [
        {
          "internalType": "address",
          "name": "from",
          "type": "address"
        },
        {
          "internalType": "address",
          "name": "to",
          "type": "address"
        },
        {
          "internalType": "uint256",
          "name": "tokenId",
          "type": "uint256"
        }
      ],
      "name": "safeTransferFrom",
      "outputs": [],
      "stateMutability": "nonpayable",
      "type": "function"
    },
    {
      "inputs": [
        {
          "internalType": "address",
          "name": "from",
          "type": "address"
        },
        {
          "internalType": "address",
          "name": "to",
          "type": "address"
        },
        {
          "internalType": "uint256",
          "name": "tokenId",
          "type": "uint256"
        },
        {
          "internalType": "bytes",
          "name": "_data",
          "type": "bytes"
        }
      ],
      "name": "safeTransferFrom",
      "outputs": [],
      "stateMutability": "nonpayable",
      "type": "function"
    },
    {
      "inputs": [
        {
          "internalType": "address",
          "name": "operator",
          "type": "address"
        },
        {
          "internalType": "bool",
          "name": "approved",
          "type": "bool"
        }
      ],
      "name": "setApprovalForAll",
      "outputs": [],
      "stateMutability": "nonpayable",
      "type": "function"
    },
    {
      "inputs": [
        {
          "internalType": "bytes4",
          "name": "interfaceId",
          "type": "bytes4"
        }
      ],
      "name": "supportsInterface",
      "outputs": [
        {
          "internalType": "bool",
          "name": "",
          "type": "bool"
        }
      ],
      "stateMutability": "view",
      "type": "function",
      "constant": true
    },
    {
      "inputs": [],
      "name": "symbol",
      "outputs": [
        {
          "internalType": "string",
          "name": "",
          "type": "string"
        }
      ],
      "stateMutability": "view",
      "type": "function",
      "constant": true
    },
    {
      "inputs": [
        {
          "internalType": "uint256",
          "name": "tokenId",
          "type": "uint256"
        }
      ],
      "name": "tokenURI",
      "outputs": [
        {
          "internalType": "string",
          "name": "",
          "type": "string"
        }
      ],
      "stateMutability": "view",
      "type": "function",
      "constant": true
    },
    {
      "inputs": [
        {
          "internalType": "address",
          "name": "from",
          "type": "address"
        },
        {
          "internalType": "address",
          "name": "to",
          "type": "address"
        },
        {
          "internalType": "uint256",
          "name": "tokenId",
          "type": "uint256"
        }
      ],
      "name": "transferFrom",
      "outputs": [],
      "stateMutability": "nonpayable",
      "type": "function"
    },
    {
      "inputs": [
        {
          "internalType": "string",
          "name": "tokenURI",
          "type": "string"
        }
      ],
      "name": "mintToken",
      "outputs": [
        {
          "internalType": "uint256",
          "name": "",
          "type": "uint256"
        }
      ],
      "stateMutability": "payable",
      "type": "function",
      "payable": true
    },
    {
      "inputs": [
        {
          "internalType": "string",
          "name": "tokenURI",
          "type": "string"
        }
      ],
      "name": "tokeURIExists",
      "outputs": [
        {
          "internalType": "bool",
          "name": "",
          "type": "bool"
        }
      ],
      "stateMutability": "view",
      "type": "function",
      "constant": true
    }
  ],
  "bytecode": "0x60806040523480156200001157600080fd5b506040518060400160405280600d81526020017f46757a7a416c696e65734e4654000000000000000000000000000000000000008152506040518060400160405280600481526020017f465a4c4e00000000000000000000000000000000000000000000000000000000815250816000908051906020019062000096929190620000b8565b508060019080519060200190620000af929190620000b8565b505050620001cc565b828054620000c69062000197565b90600052602060002090601f016020900481019282620000ea576000855562000136565b82601f106200010557805160ff191683800117855562000136565b8280016001018555821562000136579182015b828111156200013557825182559160200191906001019062000118565b5b50905062000145919062000149565b5090565b5b80821115620001645760008160009055506001016200014a565b5090565b7f4e487b7100000000000000000000000000000000000000000000000000000000600052602260045260246000fd5b60006002820490506001821680620001b057607f821691505b602082108103620001c657620001c562000168565b5b50919050565b612d9480620001dc6000396000f3fe6080604052600436106100e85760003560e01c80636352211e1161008a578063a22cb46511610059578063a22cb4651461031f578063b88d4fde14610348578063c87b56dd14610371578063e985e9c5146103ae576100e8565b80636352211e1461023d57806370a082311461027a578063892f5c12146102b757806395d89b41146102f4576100e8565b8063095ea7b3116100c6578063095ea7b31461019257806323b872dd146101bb57806333eba49a146101e457806342842e0e14610214576100e8565b806301ffc9a7146100ed57806306fdde031461012a578063081812fc14610155575b600080fd5b3480156100f957600080fd5b50610114600480360381019061010f9190611af4565b6103eb565b6040516101219190611b3c565b60405180910390f35b34801561013657600080fd5b5061013f6104cd565b60405161014c9190611bf0565b60405180910390f35b34801561016157600080fd5b5061017c60048036038101906101779190611c48565b61055f565b6040516101899190611cb6565b60405180910390f35b34801561019e57600080fd5b506101b960048036038101906101b49190611cfd565b6105e4565b005b3480156101c757600080fd5b506101e260048036038101906101dd9190611d3d565b6106fb565b005b6101fe60048036038101906101f99190611ec5565b61075b565b60405161020b9190611f1d565b60405180910390f35b34801561022057600080fd5b5061023b60048036038101906102369190611d3d565b6107d3565b005b34801561024957600080fd5b50610264600480360381019061025f9190611c48565b6107f3565b6040516102719190611cb6565b60405180910390f35b34801561028657600080fd5b506102a1600480360381019061029c9190611f38565b6108a4565b6040516102ae9190611f1d565b60405180910390f35b3480156102c357600080fd5b506102de60048036038101906102d99190611ec5565b61095b565b6040516102eb9190611b3c565b60405180910390f35b34801561030057600080fd5b50610309610997565b6040516103169190611bf0565b60405180910390f35b34801561032b57600080fd5b5061034660048036038101906103419190611f91565b610a29565b005b34801561035457600080fd5b5061036f600480360381019061036a9190612072565b610a3f565b005b34801561037d57600080fd5b5061039860048036038101906103939190611c48565b610aa1565b6040516103a59190611bf0565b60405180910390f35b3480156103ba57600080fd5b506103d560048036038101906103d091906120f5565b610bf2565b6040516103e29190611b3c565b60405180910390f35b60007f80ac58cd000000000000000000000000000000000000000000000000000000007bffffffffffffffffffffffffffffffffffffffffffffffffffffffff1916827bffffffffffffffffffffffffffffffffffffffffffffffffffffffff191614806104b657507f5b5e139f000000000000000000000000000000000000000000000000000000007bffffffffffffffffffffffffffffffffffffffffffffffffffffffff1916827bffffffffffffffffffffffffffffffffffffffffffffffffffffffff1916145b806104c657506104c582610c86565b5b9050919050565b6060600080546104dc90612164565b80601f016020809104026020016040519081016040528092919081815260200182805461050890612164565b80156105555780601f1061052a57610100808354040283529160200191610555565b820191906000526020600020905b81548152906001019060200180831161053857829003601f168201915b5050505050905090565b600061056a82610cf0565b6105a9576040517f08c379a00000000000000000000000000000000000000000000000000000000081526004016105a090612207565b60405180910390fd5b6004600083815260200190815260200160002060009054906101000a900473ffffffffffffffffffffffffffffffffffffffff169050919050565b60006105ef826107f3565b90508073ffffffffffffffffffffffffffffffffffffffff168373ffffffffffffffffffffffffffffffffffffffff160361065f576040517f08c379a000000000000000000000000000000000000000000000000000000000815260040161065690612299565b60405180910390fd5b8073ffffffffffffffffffffffffffffffffffffffff1661067e610d5c565b73ffffffffffffffffffffffffffffffffffffffff1614806106ad57506106ac816106a7610d5c565b610bf2565b5b6106ec576040517f08c379a00000000000000000000000000000000000000000000000000000000081526004016106e39061232b565b60405180910390fd5b6106f68383610d64565b505050565b61070c610706610d5c565b82610e1d565b61074b576040517f08c379a0000000000000000000000000000000000000000000000000000000008152600401610742906123bd565b60405180910390fd5b610756838383610efb565b505050565b60006107676009611161565b6107716008611161565b60016007836040516107839190612419565b908152602001604051809103902060006101000a81548160ff02191690831515021790555060006107b46009611177565b90506107c03382611185565b6107ca81846111a3565b80915050919050565b6107ee83838360405180602001604052806000815250610a3f565b505050565b6000806002600084815260200190815260200160002060009054906101000a900473ffffffffffffffffffffffffffffffffffffffff169050600073ffffffffffffffffffffffffffffffffffffffff168173ffffffffffffffffffffffffffffffffffffffff160361089b576040517f08c379a0000000000000000000000000000000000000000000000000000000008152600401610892906124a2565b60405180910390fd5b80915050919050565b60008073ffffffffffffffffffffffffffffffffffffffff168273ffffffffffffffffffffffffffffffffffffffff1603610914576040517f08c379a000000000000000000000000000000000000000000000000000000000815260040161090b90612534565b60405180910390fd5b600360008373ffffffffffffffffffffffffffffffffffffffff1673ffffffffffffffffffffffffffffffffffffffff168152602001908152602001600020549050919050565b6000600115156007836040516109719190612419565b908152602001604051809103902060009054906101000a900460ff161515149050919050565b6060600180546109a690612164565b80601f01602080910402602001604051908101604052809291908181526020018280546109d290612164565b8015610a1f5780601f106109f457610100808354040283529160200191610a1f565b820191906000526020600020905b815481529060010190602001808311610a0257829003601f168201915b5050505050905090565b610a3b610a34610d5c565b8383611217565b5050565b610a50610a4a610d5c565b83610e1d565b610a8f576040517f08c379a0000000000000000000000000000000000000000000000000000000008152600401610a86906123bd565b60405180910390fd5b610a9b84848484611383565b50505050565b6060610aac82610cf0565b610aeb576040517f08c379a0000000000000000000000000000000000000000000000000000000008152600401610ae2906125c6565b60405180910390fd5b6000600660008481526020019081526020016000208054610b0b90612164565b80601f0160208091040260200160405190810160405280929190818152602001828054610b3790612164565b8015610b845780601f10610b5957610100808354040283529160200191610b84565b820191906000526020600020905b815481529060010190602001808311610b6757829003601f168201915b505050505090506000610b956113df565b90506000815103610baa578192505050610bed565b600082511115610bdf578082604051602001610bc79291906125e6565b60405160208183030381529060405292505050610bed565b610be8846113f6565b925050505b919050565b6000600560008473ffffffffffffffffffffffffffffffffffffffff1673ffffffffffffffffffffffffffffffffffffffff16815260200190815260200160002060008373ffffffffffffffffffffffffffffffffffffffff1673ffffffffffffffffffffffffffffffffffffffff16815260200190815260200160002060009054906101000a900460ff16905092915050565b60007f01ffc9a7000000000000000000000000000000000000000000000000000000007bffffffffffffffffffffffffffffffffffffffffffffffffffffffff1916827bffffffffffffffffffffffffffffffffffffffffffffffffffffffff1916149050919050565b60008073ffffffffffffffffffffffffffffffffffffffff166002600084815260200190815260200160002060009054906101000a900473ffffffffffffffffffffffffffffffffffffffff1673ffffffffffffffffffffffffffffffffffffffff1614159050919050565b600033905090565b816004600083815260200190815260200160002060006101000a81548173ffffffffffffffffffffffffffffffffffffffff021916908373ffffffffffffffffffffffffffffffffffffffff160217905550808273ffffffffffffffffffffffffffffffffffffffff16610dd7836107f3565b73ffffffffffffffffffffffffffffffffffffffff167f8c5be1e5ebec7d5bd14f71427d1e84f3dd0314c0f7b2291e5b200ac8c7c3b92560405160405180910390a45050565b6000610e2882610cf0565b610e67576040517f08c379a0000000000000000000000000000000000000000000000000000000008152600401610e5e9061267c565b60405180910390fd5b6000610e72836107f3565b90508073ffffffffffffffffffffffffffffffffffffffff168473ffffffffffffffffffffffffffffffffffffffff161480610eb45750610eb38185610bf2565b5b80610ef257508373ffffffffffffffffffffffffffffffffffffffff16610eda8461055f565b73ffffffffffffffffffffffffffffffffffffffff16145b91505092915050565b8273ffffffffffffffffffffffffffffffffffffffff16610f1b826107f3565b73ffffffffffffffffffffffffffffffffffffffff1614610f71576040517f08c379a0000000000000000000000000000000000000000000000000000000008152600401610f689061270e565b60405180910390fd5b600073ffffffffffffffffffffffffffffffffffffffff168273ffffffffffffffffffffffffffffffffffffffff1603610fe0576040517f08c379a0000000000000000000000000000000000000000000000000000000008152600401610fd7906127a0565b60405180910390fd5b610feb83838361149d565b610ff6600082610d64565b6001600360008573ffffffffffffffffffffffffffffffffffffffff1673ffffffffffffffffffffffffffffffffffffffff168152602001908152602001600020600082825461104691906127ef565b925050819055506001600360008473ffffffffffffffffffffffffffffffffffffffff1673ffffffffffffffffffffffffffffffffffffffff168152602001908152602001600020600082825461109d9190612823565b92505081905550816002600083815260200190815260200160002060006101000a81548173ffffffffffffffffffffffffffffffffffffffff021916908373ffffffffffffffffffffffffffffffffffffffff160217905550808273ffffffffffffffffffffffffffffffffffffffff168473ffffffffffffffffffffffffffffffffffffffff167fddf252ad1be2c89b69c2b068fc378daa952ba7f163c4a11628f55a4df523b3ef60405160405180910390a461115c8383836114a2565b505050565b6001816000016000828254019250508190555050565b600081600001549050919050565b61119f8282604051806020016040528060008152506114a7565b5050565b6111ac82610cf0565b6111eb576040517f08c379a00000000000000000000000000000000000000000000000000000000081526004016111e2906128eb565b60405180910390fd5b806006600084815260200190815260200160002090805190602001906112129291906119e5565b505050565b8173ffffffffffffffffffffffffffffffffffffffff168373ffffffffffffffffffffffffffffffffffffffff1603611285576040517f08c379a000000000000000000000000000000000000000000000000000000000815260040161127c90612957565b60405180910390fd5b80600560008573ffffffffffffffffffffffffffffffffffffffff1673ffffffffffffffffffffffffffffffffffffffff16815260200190815260200160002060008473ffffffffffffffffffffffffffffffffffffffff1673ffffffffffffffffffffffffffffffffffffffff16815260200190815260200160002060006101000a81548160ff0219169083151502179055508173ffffffffffffffffffffffffffffffffffffffff168373ffffffffffffffffffffffffffffffffffffffff167f17307eab39ab6107e8899845ad3d59bd9653f200f220920489ca2b5937696c31836040516113769190611b3c565b60405180910390a3505050565b61138e848484610efb565b61139a84848484611502565b6113d9576040517f08c379a00000000000000000000000000000000000000000000000000000000081526004016113d0906129e9565b60405180910390fd5b50505050565b606060405180602001604052806000815250905090565b606061140182610cf0565b611440576040517f08c379a000000000000000000000000000000000000000000000000000000000815260040161143790612a7b565b60405180910390fd5b600061144a6113df565b9050600081511161146a5760405180602001604052806000815250611495565b8061147484611689565b6040516020016114859291906125e6565b6040516020818303038152906040525b915050919050565b505050565b505050565b6114b183836117e9565b6114be6000848484611502565b6114fd576040517f08c379a00000000000000000000000000000000000000000000000000000000081526004016114f4906129e9565b60405180910390fd5b505050565b60006115238473ffffffffffffffffffffffffffffffffffffffff166119c2565b1561167c578373ffffffffffffffffffffffffffffffffffffffff1663150b7a0261154c610d5c565b8786866040518563ffffffff1660e01b815260040161156e9493929190612af0565b6020604051808303816000875af19250505080156115aa57506040513d601f19601f820116820180604052508101906115a79190612b51565b60015b61162c573d80600081146115da576040519150601f19603f3d011682016040523d82523d6000602084013e6115df565b606091505b506000815103611624576040517f08c379a000000000000000000000000000000000000000000000000000000000815260040161161b906129e9565b60405180910390fd5b805181602001fd5b63150b7a0260e01b7bffffffffffffffffffffffffffffffffffffffffffffffffffffffff1916817bffffffffffffffffffffffffffffffffffffffffffffffffffffffff191614915050611681565b600190505b949350505050565b6060600082036116d0576040518060400160405280600181526020017f300000000000000000000000000000000000000000000000000000000000000081525090506117e4565b600082905060005b600082146117025780806116eb90612b7e565b915050600a826116fb9190612bf5565b91506116d8565b60008167ffffffffffffffff81111561171e5761171d611d9a565b5b6040519080825280601f01601f1916602001820160405280156117505781602001600182028036833780820191505090505b5090505b600085146117dd5760018261176991906127ef565b9150600a856117789190612c26565b60306117849190612823565b60f81b81838151811061179a57611799612c57565b5b60200101907effffffffffffffffffffffffffffffffffffffffffffffffffffffffffffff1916908160001a905350600a856117d69190612bf5565b9450611754565b8093505050505b919050565b600073ffffffffffffffffffffffffffffffffffffffff168273ffffffffffffffffffffffffffffffffffffffff1603611858576040517f08c379a000000000000000000000000000000000000000000000000000000000815260040161184f90612cd2565b60405180910390fd5b61186181610cf0565b156118a1576040517f08c379a000000000000000000000000000000000000000000000000000000000815260040161189890612d3e565b60405180910390fd5b6118ad6000838361149d565b6001600360008473ffffffffffffffffffffffffffffffffffffffff1673ffffffffffffffffffffffffffffffffffffffff16815260200190815260200160002060008282546118fd9190612823565b92505081905550816002600083815260200190815260200160002060006101000a81548173ffffffffffffffffffffffffffffffffffffffff021916908373ffffffffffffffffffffffffffffffffffffffff160217905550808273ffffffffffffffffffffffffffffffffffffffff16600073ffffffffffffffffffffffffffffffffffffffff167fddf252ad1be2c89b69c2b068fc378daa952ba7f163c4a11628f55a4df523b3ef60405160405180910390a46119be600083836114a2565b5050565b6000808273ffffffffffffffffffffffffffffffffffffffff163b119050919050565b8280546119f190612164565b90600052602060002090601f016020900481019282611a135760008555611a5a565b82601f10611a2c57805160ff1916838001178555611a5a565b82800160010185558215611a5a579182015b82811115611a59578251825591602001919060010190611a3e565b5b509050611a679190611a6b565b5090565b5b80821115611a84576000816000905550600101611a6c565b5090565b6000604051905090565b600080fd5b600080fd5b60007fffffffff0000000000000000000000000000000000000000000000000000000082169050919050565b611ad181611a9c565b8114611adc57600080fd5b50565b600081359050611aee81611ac8565b92915050565b600060208284031215611b0a57611b09611a92565b5b6000611b1884828501611adf565b91505092915050565b60008115159050919050565b611b3681611b21565b82525050565b6000602082019050611b516000830184611b2d565b92915050565b600081519050919050565b600082825260208201905092915050565b60005b83811015611b91578082015181840152602081019050611b76565b83811115611ba0576000848401525b50505050565b6000601f19601f8301169050919050565b6000611bc282611b57565b611bcc8185611b62565b9350611bdc818560208601611b73565b611be581611ba6565b840191505092915050565b60006020820190508181036000830152611c0a8184611bb7565b905092915050565b6000819050919050565b611c2581611c12565b8114611c3057600080fd5b50565b600081359050611c4281611c1c565b92915050565b600060208284031215611c5e57611c5d611a92565b5b6000611c6c84828501611c33565b91505092915050565b600073ffffffffffffffffffffffffffffffffffffffff82169050919050565b6000611ca082611c75565b9050919050565b611cb081611c95565b82525050565b6000602082019050611ccb6000830184611ca7565b92915050565b611cda81611c95565b8114611ce557600080fd5b50565b600081359050611cf781611cd1565b92915050565b60008060408385031215611d1457611d13611a92565b5b6000611d2285828601611ce8565b9250506020611d3385828601611c33565b9150509250929050565b600080600060608486031215611d5657611d55611a92565b5b6000611d6486828701611ce8565b9350506020611d7586828701611ce8565b9250506040611d8686828701611c33565b9150509250925092565b600080fd5b600080fd5b7f4e487b7100000000000000000000000000000000000000000000000000000000600052604160045260246000fd5b611dd282611ba6565b810181811067ffffffffffffffff82111715611df157611df0611d9a565b5b80604052505050565b6000611e04611a88565b9050611e108282611dc9565b919050565b600067ffffffffffffffff821115611e3057611e2f611d9a565b5b611e3982611ba6565b9050602081019050919050565b82818337600083830152505050565b6000611e68611e6384611e15565b611dfa565b905082815260208101848484011115611e8457611e83611d95565b5b611e8f848285611e46565b509392505050565b600082601f830112611eac57611eab611d90565b5b8135611ebc848260208601611e55565b91505092915050565b600060208284031215611edb57611eda611a92565b5b600082013567ffffffffffffffff811115611ef957611ef8611a97565b5b611f0584828501611e97565b91505092915050565b611f1781611c12565b82525050565b6000602082019050611f326000830184611f0e565b92915050565b600060208284031215611f4e57611f4d611a92565b5b6000611f5c84828501611ce8565b91505092915050565b611f6e81611b21565b8114611f7957600080fd5b50565b600081359050611f8b81611f65565b92915050565b60008060408385031215611fa857611fa7611a92565b5b6000611fb685828601611ce8565b9250506020611fc785828601611f7c565b9150509250929050565b600067ffffffffffffffff821115611fec57611feb611d9a565b5b611ff582611ba6565b9050602081019050919050565b600061201561201084611fd1565b611dfa565b90508281526020810184848401111561203157612030611d95565b5b61203c848285611e46565b509392505050565b600082601f83011261205957612058611d90565b5b8135612069848260208601612002565b91505092915050565b6000806000806080858703121561208c5761208b611a92565b5b600061209a87828801611ce8565b94505060206120ab87828801611ce8565b93505060406120bc87828801611c33565b925050606085013567ffffffffffffffff8111156120dd576120dc611a97565b5b6120e987828801612044565b91505092959194509250565b6000806040838503121561210c5761210b611a92565b5b600061211a85828601611ce8565b925050602061212b85828601611ce8565b9150509250929050565b7f4e487b7100000000000000000000000000000000000000000000000000000000600052602260045260246000fd5b6000600282049050600182168061217c57607f821691505b60208210810361218f5761218e612135565b5b50919050565b7f4552433732313a20617070726f76656420717565727920666f72206e6f6e657860008201527f697374656e7420746f6b656e0000000000000000000000000000000000000000602082015250565b60006121f1602c83611b62565b91506121fc82612195565b604082019050919050565b60006020820190508181036000830152612220816121e4565b9050919050565b7f4552433732313a20617070726f76616c20746f2063757272656e74206f776e6560008201527f7200000000000000000000000000000000000000000000000000000000000000602082015250565b6000612283602183611b62565b915061228e82612227565b604082019050919050565b600060208201905081810360008301526122b281612276565b9050919050565b7f4552433732313a20617070726f76652063616c6c6572206973206e6f74206f7760008201527f6e6572206e6f7220617070726f76656420666f7220616c6c0000000000000000602082015250565b6000612315603883611b62565b9150612320826122b9565b604082019050919050565b6000602082019050818103600083015261234481612308565b9050919050565b7f4552433732313a207472616e736665722063616c6c6572206973206e6f74206f60008201527f776e6572206e6f7220617070726f766564000000000000000000000000000000602082015250565b60006123a7603183611b62565b91506123b28261234b565b604082019050919050565b600060208201905081810360008301526123d68161239a565b9050919050565b600081905092915050565b60006123f382611b57565b6123fd81856123dd565b935061240d818560208601611b73565b80840191505092915050565b600061242582846123e8565b915081905092915050565b7f4552433732313a206f776e657220717565727920666f72206e6f6e657869737460008201527f656e7420746f6b656e0000000000000000000000000000000000000000000000602082015250565b600061248c602983611b62565b915061249782612430565b604082019050919050565b600060208201905081810360008301526124bb8161247f565b9050919050565b7f4552433732313a2062616c616e636520717565727920666f7220746865207a6560008201527f726f206164647265737300000000000000000000000000000000000000000000602082015250565b600061251e602a83611b62565b9150612529826124c2565b604082019050919050565b6000602082019050818103600083015261254d81612511565b9050919050565b7f45524337323155524953746f726167653a2055524920717565727920666f722060008201527f6e6f6e6578697374656e7420746f6b656e000000000000000000000000000000602082015250565b60006125b0603183611b62565b91506125bb82612554565b604082019050919050565b600060208201905081810360008301526125df816125a3565b9050919050565b60006125f282856123e8565b91506125fe82846123e8565b91508190509392505050565b7f4552433732313a206f70657261746f7220717565727920666f72206e6f6e657860008201527f697374656e7420746f6b656e0000000000000000000000000000000000000000602082015250565b6000612666602c83611b62565b91506126718261260a565b604082019050919050565b6000602082019050818103600083015261269581612659565b9050919050565b7f4552433732313a207472616e736665722066726f6d20696e636f72726563742060008201527f6f776e6572000000000000000000000000000000000000000000000000000000602082015250565b60006126f8602583611b62565b91506127038261269c565b604082019050919050565b60006020820190508181036000830152612727816126eb565b9050919050565b7f4552433732313a207472616e7366657220746f20746865207a65726f2061646460008201527f7265737300000000000000000000000000000000000000000000000000000000602082015250565b600061278a602483611b62565b91506127958261272e565b604082019050919050565b600060208201905081810360008301526127b98161277d565b9050919050565b7f4e487b7100000000000000000000000000000000000000000000000000000000600052601160045260246000fd5b60006127fa82611c12565b915061280583611c12565b925082821015612818576128176127c0565b5b828203905092915050565b600061282e82611c12565b915061283983611c12565b9250827fffffffffffffffffffffffffffffffffffffffffffffffffffffffffffffffff0382111561286e5761286d6127c0565b5b828201905092915050565b7f45524337323155524953746f726167653a2055524920736574206f66206e6f6e60008201527f6578697374656e7420746f6b656e000000000000000000000000000000000000602082015250565b60006128d5602e83611b62565b91506128e082612879565b604082019050919050565b60006020820190508181036000830152612904816128c8565b9050919050565b7f4552433732313a20617070726f766520746f2063616c6c657200000000000000600082015250565b6000612941601983611b62565b915061294c8261290b565b602082019050919050565b6000602082019050818103600083015261297081612934565b9050919050565b7f4552433732313a207472616e7366657220746f206e6f6e20455243373231526560008201527f63656976657220696d706c656d656e7465720000000000000000000000000000602082015250565b60006129d3603283611b62565b91506129de82612977565b604082019050919050565b60006020820190508181036000830152612a02816129c6565b9050919050565b7f4552433732314d657461646174613a2055524920717565727920666f72206e6f60008201527f6e6578697374656e7420746f6b656e0000000000000000000000000000000000602082015250565b6000612a65602f83611b62565b9150612a7082612a09565b604082019050919050565b60006020820190508181036000830152612a9481612a58565b9050919050565b600081519050919050565b600082825260208201905092915050565b6000612ac282612a9b565b612acc8185612aa6565b9350612adc818560208601611b73565b612ae581611ba6565b840191505092915050565b6000608082019050612b056000830187611ca7565b612b126020830186611ca7565b612b1f6040830185611f0e565b8181036060830152612b318184612ab7565b905095945050505050565b600081519050612b4b81611ac8565b92915050565b600060208284031215612b6757612b66611a92565b5b6000612b7584828501612b3c565b91505092915050565b6000612b8982611c12565b91507fffffffffffffffffffffffffffffffffffffffffffffffffffffffffffffffff8203612bbb57612bba6127c0565b5b600182019050919050565b7f4e487b7100000000000000000000000000000000000000000000000000000000600052601260045260246000fd5b6000612c0082611c12565b9150612c0b83611c12565b925082612c1b57612c1a612bc6565b5b828204905092915050565b6000612c3182611c12565b9150612c3c83611c12565b925082612c4c57612c4b612bc6565b5b828206905092915050565b7f4e487b7100000000000000000000000000000000000000000000000000000000600052603260045260246000fd5b7f4552433732313a206d696e7420746f20746865207a65726f2061646472657373600082015250565b6000612cbc602083611b62565b9150612cc782612c86565b602082019050919050565b60006020820190508181036000830152612ceb81612caf565b9050919050565b7f4552433732313a20746f6b656e20616c7265616479206d696e74656400000000600082015250565b6000612d28601c83611b62565b9150612d3382612cf2565b602082019050919050565b60006020820190508181036000830152612d5781612d1b565b905091905056fea26469706673582212201a7f037d12a4d0fa1caa4e5d3e157d97ae5d65e377ce51820c320a7bfc7584b364736f6c634300080e0033",
  "immutableReferences": {},
  "source": "// SPDX-License-Identifier: MIT\npragma solidity >=0.4.22 <0.9.0;\n\nimport \"@openzeppelin/contracts/token/ERC721/extensions/ERC721URIStorage.sol\";\nimport \"@openzeppelin/contracts/utils/Counters.sol\";\n\ncontract NftMarket is ERC721URIStorage {\n   \n    // @dev: For incrementing and decrementing \n    using Counters for Counters.Counter;\n\n    // @dev: list of used tokenIDs\n    mapping(string => bool) private _usedTokenURIs;\n\n    // @dev: _listedItems how many nfts are for sale items for sale on the market \n    // _tokenIds nft total that have been created for the smart contract. \n    Counters.Counter private _listedItems;\n    Counters.Counter private _tokenIds;\n     \n    constructor() ERC721(\"FuzzAlinesNFT\", \"FZLN\") {}\n\n    // mint token (NFT)\n    function mintToken(string memory tokenURI) public payable returns (uint) {\n\n       //increament token counter \n        _tokenIds.increment();\n        _listedItems.increment();\n        _usedTokenURIs[tokenURI] = true;\n\n        // get the value of the current token \n        uint newTokenId = _tokenIds.current();\n\n        _safeMint(msg.sender, newTokenId);\n        _setTokenURI(newTokenId, tokenURI);\n\n        return newTokenId;\n    }\n   \n    // Verify token existence \n    function tokeURIExists(string memory tokenURI) public view returns (bool) {\n        return _usedTokenURIs[tokenURI] == true;\n    }\n\n}",
  "sourcePath": "/Users/jamesahnking/Documents/reactprojects/004_nftmarketplace/nftmarketplace/contracts/NftMarket.sol",
  "compiler": {
    "name": "solc",
    "version": "0.8.14+commit.80d49f37.Emscripten.clang"
  },
  "schemaVersion": "3.4.7",
  "updatedAt": "2022-07-14T19:14:57.188Z",
  "networkType": "ethereum",
  "devdoc": {
    "kind": "dev",
    "methods": {
      "approve(address,uint256)": {
        "details": "See {IERC721-approve}."
      },
      "balanceOf(address)": {
        "details": "See {IERC721-balanceOf}."
      },
      "getApproved(uint256)": {
        "details": "See {IERC721-getApproved}."
      },
      "isApprovedForAll(address,address)": {
        "details": "See {IERC721-isApprovedForAll}."
      },
      "name()": {
        "details": "See {IERC721Metadata-name}."
      },
      "ownerOf(uint256)": {
        "details": "See {IERC721-ownerOf}."
      },
      "safeTransferFrom(address,address,uint256)": {
        "details": "See {IERC721-safeTransferFrom}."
      },
      "safeTransferFrom(address,address,uint256,bytes)": {
        "details": "See {IERC721-safeTransferFrom}."
      },
      "setApprovalForAll(address,bool)": {
        "details": "See {IERC721-setApprovalForAll}."
      },
      "supportsInterface(bytes4)": {
        "details": "See {IERC165-supportsInterface}."
      },
      "symbol()": {
        "details": "See {IERC721Metadata-symbol}."
      },
      "tokenURI(uint256)": {
        "details": "See {IERC721Metadata-tokenURI}."
      },
      "transferFrom(address,address,uint256)": {
        "details": "See {IERC721-transferFrom}."
      }
    },
    "version": 1
  },
  "userdoc": {
    "kind": "user",
    "methods": {},
    "version": 1
  }
}