{
  "contractName": "NftMarket",
  "abi": [
    {
      "inputs": [],
      "stateMutability": "nonpayable",
      "type": "constructor"
    },
    {
      "anonymous": false,
      "inputs": [
        {
          "indexed": true,
          "internalType": "address",
          "name": "owner",
          "type": "address"
        },
        {
          "indexed": true,
          "internalType": "address",
          "name": "approved",
          "type": "address"
        },
        {
          "indexed": true,
          "internalType": "uint256",
          "name": "tokenId",
          "type": "uint256"
        }
      ],
      "name": "Approval",
      "type": "event"
    },
    {
      "anonymous": false,
      "inputs": [
        {
          "indexed": true,
          "internalType": "address",
          "name": "owner",
          "type": "address"
        },
        {
          "indexed": true,
          "internalType": "address",
          "name": "operator",
          "type": "address"
        },
        {
          "indexed": false,
          "internalType": "bool",
          "name": "approved",
          "type": "bool"
        }
      ],
      "name": "ApprovalForAll",
      "type": "event"
    },
    {
      "anonymous": false,
      "inputs": [
        {
          "indexed": false,
          "internalType": "uint256",
          "name": "tokenId",
          "type": "uint256"
        },
        {
          "indexed": false,
          "internalType": "uint256",
          "name": "price",
          "type": "uint256"
        },
        {
          "indexed": false,
          "internalType": "address",
          "name": "creator",
          "type": "address"
        },
        {
          "indexed": false,
          "internalType": "bool",
          "name": "isListed",
          "type": "bool"
        }
      ],
      "name": "NftItemCreated",
      "type": "event"
    },
    {
      "anonymous": false,
      "inputs": [
        {
          "indexed": true,
          "internalType": "address",
          "name": "previousOwner",
          "type": "address"
        },
        {
          "indexed": true,
          "internalType": "address",
          "name": "newOwner",
          "type": "address"
        }
      ],
      "name": "OwnershipTransferred",
      "type": "event"
    },
    {
      "anonymous": false,
      "inputs": [
        {
          "indexed": true,
          "internalType": "address",
          "name": "from",
          "type": "address"
        },
        {
          "indexed": true,
          "internalType": "address",
          "name": "to",
          "type": "address"
        },
        {
          "indexed": true,
          "internalType": "uint256",
          "name": "tokenId",
          "type": "uint256"
        }
      ],
      "name": "Transfer",
      "type": "event"
    },
    {
      "inputs": [
        {
          "internalType": "address",
          "name": "to",
          "type": "address"
        },
        {
          "internalType": "uint256",
          "name": "tokenId",
          "type": "uint256"
        }
      ],
      "name": "approve",
      "outputs": [],
      "stateMutability": "nonpayable",
      "type": "function"
    },
    {
      "inputs": [
        {
          "internalType": "address",
          "name": "owner",
          "type": "address"
        }
      ],
      "name": "balanceOf",
      "outputs": [
        {
          "internalType": "uint256",
          "name": "",
          "type": "uint256"
        }
      ],
      "stateMutability": "view",
      "type": "function",
      "constant": true
    },
    {
      "inputs": [
        {
          "internalType": "uint256",
          "name": "tokenId",
          "type": "uint256"
        }
      ],
      "name": "getApproved",
      "outputs": [
        {
          "internalType": "address",
          "name": "",
          "type": "address"
        }
      ],
      "stateMutability": "view",
      "type": "function",
      "constant": true
    },
    {
      "inputs": [
        {
          "internalType": "address",
          "name": "owner",
          "type": "address"
        },
        {
          "internalType": "address",
          "name": "operator",
          "type": "address"
        }
      ],
      "name": "isApprovedForAll",
      "outputs": [
        {
          "internalType": "bool",
          "name": "",
          "type": "bool"
        }
      ],
      "stateMutability": "view",
      "type": "function",
      "constant": true
    },
    {
      "inputs": [],
      "name": "listingPrice",
      "outputs": [
        {
          "internalType": "uint256",
          "name": "",
          "type": "uint256"
        }
      ],
      "stateMutability": "view",
      "type": "function",
      "constant": true
    },
    {
      "inputs": [],
      "name": "name",
      "outputs": [
        {
          "internalType": "string",
          "name": "",
          "type": "string"
        }
      ],
      "stateMutability": "view",
      "type": "function",
      "constant": true
    },
    {
      "inputs": [],
      "name": "owner",
      "outputs": [
        {
          "internalType": "address",
          "name": "",
          "type": "address"
        }
      ],
      "stateMutability": "view",
      "type": "function",
      "constant": true
    },
    {
      "inputs": [
        {
          "internalType": "uint256",
          "name": "tokenId",
          "type": "uint256"
        }
      ],
      "name": "ownerOf",
      "outputs": [
        {
          "internalType": "address",
          "name": "",
          "type": "address"
        }
      ],
      "stateMutability": "view",
      "type": "function",
      "constant": true
    },
    {
      "inputs": [],
      "name": "renounceOwnership",
      "outputs": [],
      "stateMutability": "nonpayable",
      "type": "function"
    },
    {
      "inputs": [
        {
          "internalType": "address",
          "name": "from",
          "type": "address"
        },
        {
          "internalType": "address",
          "name": "to",
          "type": "address"
        },
        {
          "internalType": "uint256",
          "name": "tokenId",
          "type": "uint256"
        }
      ],
      "name": "safeTransferFrom",
      "outputs": [],
      "stateMutability": "nonpayable",
      "type": "function"
    },
    {
      "inputs": [
        {
          "internalType": "address",
          "name": "from",
          "type": "address"
        },
        {
          "internalType": "address",
          "name": "to",
          "type": "address"
        },
        {
          "internalType": "uint256",
          "name": "tokenId",
          "type": "uint256"
        },
        {
          "internalType": "bytes",
          "name": "_data",
          "type": "bytes"
        }
      ],
      "name": "safeTransferFrom",
      "outputs": [],
      "stateMutability": "nonpayable",
      "type": "function"
    },
    {
      "inputs": [
        {
          "internalType": "address",
          "name": "operator",
          "type": "address"
        },
        {
          "internalType": "bool",
          "name": "approved",
          "type": "bool"
        }
      ],
      "name": "setApprovalForAll",
      "outputs": [],
      "stateMutability": "nonpayable",
      "type": "function"
    },
    {
      "inputs": [
        {
          "internalType": "bytes4",
          "name": "interfaceId",
          "type": "bytes4"
        }
      ],
      "name": "supportsInterface",
      "outputs": [
        {
          "internalType": "bool",
          "name": "",
          "type": "bool"
        }
      ],
      "stateMutability": "view",
      "type": "function",
      "constant": true
    },
    {
      "inputs": [],
      "name": "symbol",
      "outputs": [
        {
          "internalType": "string",
          "name": "",
          "type": "string"
        }
      ],
      "stateMutability": "view",
      "type": "function",
      "constant": true
    },
    {
      "inputs": [
        {
          "internalType": "uint256",
          "name": "tokenId",
          "type": "uint256"
        }
      ],
      "name": "tokenURI",
      "outputs": [
        {
          "internalType": "string",
          "name": "",
          "type": "string"
        }
      ],
      "stateMutability": "view",
      "type": "function",
      "constant": true
    },
    {
      "inputs": [
        {
          "internalType": "address",
          "name": "from",
          "type": "address"
        },
        {
          "internalType": "address",
          "name": "to",
          "type": "address"
        },
        {
          "internalType": "uint256",
          "name": "tokenId",
          "type": "uint256"
        }
      ],
      "name": "transferFrom",
      "outputs": [],
      "stateMutability": "nonpayable",
      "type": "function"
    },
    {
      "inputs": [
        {
          "internalType": "address",
          "name": "newOwner",
          "type": "address"
        }
      ],
      "name": "transferOwnership",
      "outputs": [],
      "stateMutability": "nonpayable",
      "type": "function"
    },
    {
      "inputs": [],
      "name": "totalSupply",
      "outputs": [
        {
          "internalType": "uint256",
          "name": "",
          "type": "uint256"
        }
      ],
      "stateMutability": "view",
      "type": "function",
      "constant": true
    },
    {
      "inputs": [
        {
          "internalType": "uint256",
          "name": "index",
          "type": "uint256"
        }
      ],
      "name": "tokenByIndex",
      "outputs": [
        {
          "internalType": "uint256",
          "name": "",
          "type": "uint256"
        }
      ],
      "stateMutability": "view",
      "type": "function",
      "constant": true
    },
    {
      "inputs": [
        {
          "internalType": "address",
          "name": "owner",
          "type": "address"
        },
        {
          "internalType": "uint256",
          "name": "index",
          "type": "uint256"
        }
      ],
      "name": "tokenOfOwnerByIndex",
      "outputs": [
        {
          "internalType": "uint256",
          "name": "",
          "type": "uint256"
        }
      ],
      "stateMutability": "view",
      "type": "function",
      "constant": true
    },
    {
      "inputs": [],
      "name": "getAllNftsOnSale",
      "outputs": [
        {
          "components": [
            {
              "internalType": "uint256",
              "name": "tokenId",
              "type": "uint256"
            },
            {
              "internalType": "uint256",
              "name": "price",
              "type": "uint256"
            },
            {
              "internalType": "address",
              "name": "creator",
              "type": "address"
            },
            {
              "internalType": "bool",
              "name": "isListed",
              "type": "bool"
            }
          ],
          "internalType": "struct NftMarket.NftItem[]",
          "name": "",
          "type": "tuple[]"
        }
      ],
      "stateMutability": "view",
      "type": "function",
      "constant": true
    },
    {
      "inputs": [],
      "name": "getOwnedNfts",
      "outputs": [
        {
          "components": [
            {
              "internalType": "uint256",
              "name": "tokenId",
              "type": "uint256"
            },
            {
              "internalType": "uint256",
              "name": "price",
              "type": "uint256"
            },
            {
              "internalType": "address",
              "name": "creator",
              "type": "address"
            },
            {
              "internalType": "bool",
              "name": "isListed",
              "type": "bool"
            }
          ],
          "internalType": "struct NftMarket.NftItem[]",
          "name": "",
          "type": "tuple[]"
        }
      ],
      "stateMutability": "view",
      "type": "function",
      "constant": true
    },
    {
      "inputs": [
        {
          "internalType": "uint256",
          "name": "newPrice",
          "type": "uint256"
        }
      ],
      "name": "setListingPrice",
      "outputs": [],
      "stateMutability": "nonpayable",
      "type": "function"
    },
    {
      "inputs": [
        {
          "internalType": "uint256",
          "name": "tokenId",
          "type": "uint256"
        }
      ],
      "name": "getNftItem",
      "outputs": [
        {
          "components": [
            {
              "internalType": "uint256",
              "name": "tokenId",
              "type": "uint256"
            },
            {
              "internalType": "uint256",
              "name": "price",
              "type": "uint256"
            },
            {
              "internalType": "address",
              "name": "creator",
              "type": "address"
            },
            {
              "internalType": "bool",
              "name": "isListed",
              "type": "bool"
            }
          ],
          "internalType": "struct NftMarket.NftItem",
          "name": "",
          "type": "tuple"
        }
      ],
      "stateMutability": "view",
      "type": "function",
      "constant": true
    },
    {
      "inputs": [],
      "name": "listedItemCount",
      "outputs": [
        {
          "internalType": "uint256",
          "name": "",
          "type": "uint256"
        }
      ],
      "stateMutability": "view",
      "type": "function",
      "constant": true
    },
    {
      "inputs": [
        {
          "internalType": "string",
          "name": "tokenURI",
          "type": "string"
        }
      ],
      "name": "tokenURIExists",
      "outputs": [
        {
          "internalType": "bool",
          "name": "",
          "type": "bool"
        }
      ],
      "stateMutability": "view",
      "type": "function",
      "constant": true
    },
    {
      "inputs": [
        {
          "internalType": "string",
          "name": "tokenURI",
          "type": "string"
        },
        {
          "internalType": "uint256",
          "name": "price",
          "type": "uint256"
        }
      ],
      "name": "mintToken",
      "outputs": [
        {
          "internalType": "uint256",
          "name": "",
          "type": "uint256"
        }
      ],
      "stateMutability": "payable",
      "type": "function",
      "payable": true
    },
    {
      "inputs": [
        {
          "internalType": "uint256",
          "name": "tokenId",
          "type": "uint256"
        }
      ],
      "name": "buyNft",
      "outputs": [],
      "stateMutability": "payable",
      "type": "function",
      "payable": true
    },
    {
      "inputs": [
        {
          "internalType": "uint256",
          "name": "tokenId",
          "type": "uint256"
        },
        {
          "internalType": "uint256",
          "name": "newPrice",
          "type": "uint256"
        }
      ],
      "name": "placeNftOnSale",
      "outputs": [],
      "stateMutability": "payable",
      "type": "function",
      "payable": true
    }
  ],
  "bytecode": "0x60806040526658d15e17628000600a553480156200001c57600080fd5b506040518060400160405280600d81526020017f46757a7a416c696e65734e4654000000000000000000000000000000000000008152506040518060400160405280600481526020017f465a4c4e000000000000000000000000000000000000000000000000000000008152508160009080519060200190620000a1929190620001b1565b508060019080519060200190620000ba929190620001b1565b505050620000dd620000d1620000e360201b60201c565b620000eb60201b60201c565b620002c5565b600033905090565b6000600760009054906101000a900473ffffffffffffffffffffffffffffffffffffffff16905081600760006101000a81548173ffffffffffffffffffffffffffffffffffffffff021916908373ffffffffffffffffffffffffffffffffffffffff1602179055508173ffffffffffffffffffffffffffffffffffffffff168173ffffffffffffffffffffffffffffffffffffffff167f8be0079c531659141344cd1fd0a4f28419497f9722a3daafe3b4186f6b6457e060405160405180910390a35050565b828054620001bf9062000290565b90600052602060002090601f016020900481019282620001e357600085556200022f565b82601f10620001fe57805160ff19168380011785556200022f565b828001600101855582156200022f579182015b828111156200022e57825182559160200191906001019062000211565b5b5090506200023e919062000242565b5090565b5b808211156200025d57600081600090555060010162000243565b5090565b7f4e487b7100000000000000000000000000000000000000000000000000000000600052602260045260246000fd5b60006002820490506001821680620002a957607f821691505b602082108103620002bf57620002be62000261565b5b50919050565b614b4980620002d56000396000f3fe6080604052600436106101c25760003560e01c80636f1a0af5116100f757806395d89b4111610095578063c78f19f911610064578063c78f19f914610651578063c87b56dd1461067c578063e985e9c5146106b9578063f2fde38b146106f6576101c2565b806395d89b41146105a4578063a22cb465146105cf578063b88d4fde146105f8578063c046372c14610621576101c2565b8063715018a6116100d1578063715018a61461050e578063763dbeed146105255780637c726b69146105505780638da5cb5b14610579576101c2565b80636f1a0af51461046957806370a08231146104a657806370cbcb43146104e3576101c2565b8063243adbdd1161016457806342842e0e1161013e57806342842e0e1461038957806343d32ae7146103b25780634f6ccce7146103ef5780636352211e1461042c576101c2565b8063243adbdd146103055780632f745c591461032157806336b536be1461035e576101c2565b8063095ea7b3116101a0578063095ea7b31461026c57806318160ddd1461029557806321f422e5146102c057806323b872dd146102dc576101c2565b806301ffc9a7146101c757806306fdde0314610204578063081812fc1461022f575b600080fd5b3480156101d357600080fd5b506101ee60048036038101906101e99190612fc2565b61071f565b6040516101fb919061300a565b60405180910390f35b34801561021057600080fd5b50610219610801565b60405161022691906130be565b60405180910390f35b34801561023b57600080fd5b5061025660048036038101906102519190613116565b610893565b6040516102639190613184565b60405180910390f35b34801561027857600080fd5b50610293600480360381019061028e91906131cb565b610918565b005b3480156102a157600080fd5b506102aa610a2f565b6040516102b7919061321a565b60405180910390f35b6102da60048036038101906102d59190613235565b610a3c565b005b3480156102e857600080fd5b5061030360048036038101906102fe9190613275565b610bb0565b005b61031f600480360381019061031a9190613116565b610c10565b005b34801561032d57600080fd5b50610348600480360381019061034391906131cb565b610d78565b604051610355919061321a565b60405180910390f35b34801561036a57600080fd5b50610373610e1d565b60405161038091906133f9565b60405180910390f35b34801561039557600080fd5b506103b060048036038101906103ab9190613275565b610fb7565b005b3480156103be57600080fd5b506103d960048036038101906103d49190613550565b610fd7565b6040516103e6919061300a565b60405180910390f35b3480156103fb57600080fd5b5061041660048036038101906104119190613116565b611013565b604051610423919061321a565b60405180910390f35b34801561043857600080fd5b50610453600480360381019061044e9190613116565b611084565b6040516104609190613184565b60405180910390f35b34801561047557600080fd5b50610490600480360381019061048b9190613116565b611135565b60405161049d91906135ee565b60405180910390f35b3480156104b257600080fd5b506104cd60048036038101906104c89190613609565b6111e7565b6040516104da919061321a565b60405180910390f35b3480156104ef57600080fd5b506104f861129e565b60405161050591906133f9565b60405180910390f35b34801561051a57600080fd5b50610523611402565b005b34801561053157600080fd5b5061053a61148a565b604051610547919061321a565b60405180910390f35b34801561055c57600080fd5b5061057760048036038101906105729190613116565b61149b565b005b34801561058557600080fd5b5061058e611564565b60405161059b9190613184565b60405180910390f35b3480156105b057600080fd5b506105b961158e565b6040516105c691906130be565b60405180910390f35b3480156105db57600080fd5b506105f660048036038101906105f19190613662565b611620565b005b34801561060457600080fd5b5061061f600480360381019061061a9190613743565b611636565b005b61063b600480360381019061063691906137c6565b611698565b604051610648919061321a565b60405180910390f35b34801561065d57600080fd5b506106666117a8565b604051610673919061321a565b60405180910390f35b34801561068857600080fd5b506106a3600480360381019061069e9190613116565b6117ae565b6040516106b091906130be565b60405180910390f35b3480156106c557600080fd5b506106e060048036038101906106db9190613822565b6118ff565b6040516106ed919061300a565b60405180910390f35b34801561070257600080fd5b5061071d60048036038101906107189190613609565b611993565b005b60007f80ac58cd000000000000000000000000000000000000000000000000000000007bffffffffffffffffffffffffffffffffffffffffffffffffffffffff1916827bffffffffffffffffffffffffffffffffffffffffffffffffffffffff191614806107ea57507f5b5e139f000000000000000000000000000000000000000000000000000000007bffffffffffffffffffffffffffffffffffffffffffffffffffffffff1916827bffffffffffffffffffffffffffffffffffffffffffffffffffffffff1916145b806107fa57506107f982611a8a565b5b9050919050565b60606000805461081090613891565b80601f016020809104026020016040519081016040528092919081815260200182805461083c90613891565b80156108895780601f1061085e57610100808354040283529160200191610889565b820191906000526020600020905b81548152906001019060200180831161086c57829003601f168201915b5050505050905090565b600061089e82611af4565b6108dd576040517f08c379a00000000000000000000000000000000000000000000000000000000081526004016108d490613934565b60405180910390fd5b6004600083815260200190815260200160002060009054906101000a900473ffffffffffffffffffffffffffffffffffffffff169050919050565b600061092382611084565b90508073ffffffffffffffffffffffffffffffffffffffff168373ffffffffffffffffffffffffffffffffffffffff1603610993576040517f08c379a000000000000000000000000000000000000000000000000000000000815260040161098a906139c6565b60405180910390fd5b8073ffffffffffffffffffffffffffffffffffffffff166109b2611b60565b73ffffffffffffffffffffffffffffffffffffffff1614806109e157506109e0816109db611b60565b6118ff565b5b610a20576040517f08c379a0000000000000000000000000000000000000000000000000000000008152600401610a1790613a58565b60405180910390fd5b610a2a8383611b68565b505050565b6000601080549050905090565b3373ffffffffffffffffffffffffffffffffffffffff16610a5c83611084565b73ffffffffffffffffffffffffffffffffffffffff1614610ab2576040517f08c379a0000000000000000000000000000000000000000000000000000000008152600401610aa990613ac4565b60405180910390fd5b60001515600f600084815260200190815260200160002060020160149054906101000a900460ff16151514610b1c576040517f08c379a0000000000000000000000000000000000000000000000000000000008152600401610b1390613b30565b60405180910390fd5b600a543414610b60576040517f08c379a0000000000000000000000000000000000000000000000000000000008152600401610b5790613bc2565b60405180910390fd5b60011515600f600084815260200190815260200160002060020160149054906101000a9050505080600f600084815260200190815260200160002060010181905550610bac6008611c21565b5050565b610bc1610bbb611b60565b82611c37565b610c00576040517f08c379a0000000000000000000000000000000000000000000000000000000008152600401610bf790613c54565b60405180910390fd5b610c0b838383611d15565b505050565b6000600f60008381526020019081526020016000206001015490506000610c3683611084565b90508073ffffffffffffffffffffffffffffffffffffffff163373ffffffffffffffffffffffffffffffffffffffff1603610ca6576040517f08c379a0000000000000000000000000000000000000000000000000000000008152600401610c9d90613cc0565b60405180910390fd5b813414610ce8576040517f08c379a0000000000000000000000000000000000000000000000000000000008152600401610cdf90613d52565b60405180910390fd5b6000600f600085815260200190815260200160002060020160146101000a81548160ff021916908315150217905550610d216008611f7b565b610d2c813385611d15565b8073ffffffffffffffffffffffffffffffffffffffff166108fc349081150290604051600060405180830381858888f19350505050158015610d72573d6000803e3d6000fd5b50505050565b6000610d83836111e7565b8210610dc4576040517f08c379a0000000000000000000000000000000000000000000000000000000008152600401610dbb90613dbe565b60405180910390fd5b600d60008473ffffffffffffffffffffffffffffffffffffffff1673ffffffffffffffffffffffffffffffffffffffff168152602001908152602001600020600083815260200190815260200160002054905092915050565b60606000610e29610a2f565b9050600080610e386008611fd7565b67ffffffffffffffff811115610e5157610e50613425565b5b604051908082528060200260200182016040528015610e8a57816020015b610e77612e73565b815260200190600190039081610e6f5790505b50905060005b83811015610fad576000610ea382611013565b90506000600f60008381526020019081526020016000209050600115158160020160149054906101000a900460ff16151503610f98578060405180608001604052908160008201548152602001600182015481526020016002820160009054906101000a900473ffffffffffffffffffffffffffffffffffffffff1673ffffffffffffffffffffffffffffffffffffffff1673ffffffffffffffffffffffffffffffffffffffff1681526020016002820160149054906101000a900460ff161515151581525050848681518110610f7d57610f7c613dde565b5b6020026020010181905250600185610f959190613e3c565b94505b50508080610fa590613e92565b915050610e90565b5080935050505090565b610fd283838360405180602001604052806000815250611636565b505050565b600060011515600b83604051610fed9190613f16565b908152602001604051809103902060009054906101000a900460ff161515149050919050565b600061101d610a2f565b821061105e576040517f08c379a000000000000000000000000000000000000000000000000000000000815260040161105590613dbe565b60405180910390fd5b6010828154811061107257611071613dde565b5b90600052602060002001549050919050565b6000806002600084815260200190815260200160002060009054906101000a900473ffffffffffffffffffffffffffffffffffffffff169050600073ffffffffffffffffffffffffffffffffffffffff168173ffffffffffffffffffffffffffffffffffffffff160361112c576040517f08c379a000000000000000000000000000000000000000000000000000000000815260040161112390613f9f565b60405180910390fd5b80915050919050565b61113d612e73565b600f600083815260200190815260200160002060405180608001604052908160008201548152602001600182015481526020016002820160009054906101000a900473ffffffffffffffffffffffffffffffffffffffff1673ffffffffffffffffffffffffffffffffffffffff1673ffffffffffffffffffffffffffffffffffffffff1681526020016002820160149054906101000a900460ff1615151515815250509050919050565b60008073ffffffffffffffffffffffffffffffffffffffff168273ffffffffffffffffffffffffffffffffffffffff1603611257576040517f08c379a000000000000000000000000000000000000000000000000000000000815260040161124e90614031565b60405180910390fd5b600360008373ffffffffffffffffffffffffffffffffffffffff1673ffffffffffffffffffffffffffffffffffffffff168152602001908152602001600020549050919050565b606060006112ab336111e7565b905060008167ffffffffffffffff8111156112c9576112c8613425565b5b60405190808252806020026020018201604052801561130257816020015b6112ef612e73565b8152602001906001900390816112e75790505b50905060005b828110156113f957600061131c3383610d78565b90506000600f600083815260200190815260200160002090508060405180608001604052908160008201548152602001600182015481526020016002820160009054906101000a900473ffffffffffffffffffffffffffffffffffffffff1673ffffffffffffffffffffffffffffffffffffffff1673ffffffffffffffffffffffffffffffffffffffff1681526020016002820160149054906101000a900460ff1615151515815250508484815181106113d9576113d8613dde565b5b6020026020010181905250505080806113f190613e92565b915050611308565b50809250505090565b61140a611b60565b73ffffffffffffffffffffffffffffffffffffffff16611428611564565b73ffffffffffffffffffffffffffffffffffffffff161461147e576040517f08c379a00000000000000000000000000000000000000000000000000000000081526004016114759061409d565b60405180910390fd5b6114886000611fe5565b565b60006114966008611fd7565b905090565b6114a3611b60565b73ffffffffffffffffffffffffffffffffffffffff166114c1611564565b73ffffffffffffffffffffffffffffffffffffffff1614611517576040517f08c379a000000000000000000000000000000000000000000000000000000000815260040161150e9061409d565b60405180910390fd5b6000811161155a576040517f08c379a000000000000000000000000000000000000000000000000000000000815260040161155190614109565b60405180910390fd5b80600a8190555050565b6000600760009054906101000a900473ffffffffffffffffffffffffffffffffffffffff16905090565b60606001805461159d90613891565b80601f01602080910402602001604051908101604052809291908181526020018280546115c990613891565b80156116165780601f106115eb57610100808354040283529160200191611616565b820191906000526020600020905b8154815290600101906020018083116115f957829003601f168201915b5050505050905090565b61163261162b611b60565b83836120ab565b5050565b611647611641611b60565b83611c37565b611686576040517f08c379a000000000000000000000000000000000000000000000000000000000815260040161167d90613c54565b60405180910390fd5b61169284848484612217565b50505050565b60006116a383610fd7565b156116e3576040517f08c379a00000000000000000000000000000000000000000000000000000000081526004016116da90614175565b60405180910390fd5b600a543414611727576040517f08c379a000000000000000000000000000000000000000000000000000000000815260040161171e90614207565b60405180910390fd5b6117316009611c21565b61173b6008611c21565b6001600b8460405161174d9190613f16565b908152602001604051809103902060006101000a81548160ff021916908315150217905550600061177e6009611fd7565b905061178a3382612273565b6117948185612291565b61179e8184612305565b8091505092915050565b600a5481565b60606117b982611af4565b6117f8576040517f08c379a00000000000000000000000000000000000000000000000000000000081526004016117ef90614299565b60405180910390fd5b600060066000848152602001908152602001600020805461181890613891565b80601f016020809104026020016040519081016040528092919081815260200182805461184490613891565b80156118915780601f1061186657610100808354040283529160200191611891565b820191906000526020600020905b81548152906001019060200180831161187457829003601f168201915b5050505050905060006118a2612455565b905060008151036118b75781925050506118fa565b6000825111156118ec5780826040516020016118d49291906142b9565b604051602081830303815290604052925050506118fa565b6118f58461246c565b925050505b919050565b6000600560008473ffffffffffffffffffffffffffffffffffffffff1673ffffffffffffffffffffffffffffffffffffffff16815260200190815260200160002060008373ffffffffffffffffffffffffffffffffffffffff1673ffffffffffffffffffffffffffffffffffffffff16815260200190815260200160002060009054906101000a900460ff16905092915050565b61199b611b60565b73ffffffffffffffffffffffffffffffffffffffff166119b9611564565b73ffffffffffffffffffffffffffffffffffffffff1614611a0f576040517f08c379a0000000000000000000000000000000000000000000000000000000008152600401611a069061409d565b60405180910390fd5b600073ffffffffffffffffffffffffffffffffffffffff168173ffffffffffffffffffffffffffffffffffffffff1603611a7e576040517f08c379a0000000000000000000000000000000000000000000000000000000008152600401611a759061434f565b60405180910390fd5b611a8781611fe5565b50565b60007f01ffc9a7000000000000000000000000000000000000000000000000000000007bffffffffffffffffffffffffffffffffffffffffffffffffffffffff1916827bffffffffffffffffffffffffffffffffffffffffffffffffffffffff1916149050919050565b60008073ffffffffffffffffffffffffffffffffffffffff166002600084815260200190815260200160002060009054906101000a900473ffffffffffffffffffffffffffffffffffffffff1673ffffffffffffffffffffffffffffffffffffffff1614159050919050565b600033905090565b816004600083815260200190815260200160002060006101000a81548173ffffffffffffffffffffffffffffffffffffffff021916908373ffffffffffffffffffffffffffffffffffffffff160217905550808273ffffffffffffffffffffffffffffffffffffffff16611bdb83611084565b73ffffffffffffffffffffffffffffffffffffffff167f8c5be1e5ebec7d5bd14f71427d1e84f3dd0314c0f7b2291e5b200ac8c7c3b92560405160405180910390a45050565b6001816000016000828254019250508190555050565b6000611c4282611af4565b611c81576040517f08c379a0000000000000000000000000000000000000000000000000000000008152600401611c78906143e1565b60405180910390fd5b6000611c8c83611084565b90508073ffffffffffffffffffffffffffffffffffffffff168473ffffffffffffffffffffffffffffffffffffffff161480611cce5750611ccd81856118ff565b5b80611d0c57508373ffffffffffffffffffffffffffffffffffffffff16611cf484610893565b73ffffffffffffffffffffffffffffffffffffffff16145b91505092915050565b8273ffffffffffffffffffffffffffffffffffffffff16611d3582611084565b73ffffffffffffffffffffffffffffffffffffffff1614611d8b576040517f08c379a0000000000000000000000000000000000000000000000000000000008152600401611d8290614473565b60405180910390fd5b600073ffffffffffffffffffffffffffffffffffffffff168273ffffffffffffffffffffffffffffffffffffffff1603611dfa576040517f08c379a0000000000000000000000000000000000000000000000000000000008152600401611df190614505565b60405180910390fd5b611e05838383612513565b611e10600082611b68565b6001600360008573ffffffffffffffffffffffffffffffffffffffff1673ffffffffffffffffffffffffffffffffffffffff1681526020019081526020016000206000828254611e609190614525565b925050819055506001600360008473ffffffffffffffffffffffffffffffffffffffff1673ffffffffffffffffffffffffffffffffffffffff1681526020019081526020016000206000828254611eb79190613e3c565b92505081905550816002600083815260200190815260200160002060006101000a81548173ffffffffffffffffffffffffffffffffffffffff021916908373ffffffffffffffffffffffffffffffffffffffff160217905550808273ffffffffffffffffffffffffffffffffffffffff168473ffffffffffffffffffffffffffffffffffffffff167fddf252ad1be2c89b69c2b068fc378daa952ba7f163c4a11628f55a4df523b3ef60405160405180910390a4611f76838383612625565b505050565b60008160000154905060008111611fc7576040517f08c379a0000000000000000000000000000000000000000000000000000000008152600401611fbe906145a5565b60405180910390fd5b6001810382600001819055505050565b600081600001549050919050565b6000600760009054906101000a900473ffffffffffffffffffffffffffffffffffffffff16905081600760006101000a81548173ffffffffffffffffffffffffffffffffffffffff021916908373ffffffffffffffffffffffffffffffffffffffff1602179055508173ffffffffffffffffffffffffffffffffffffffff168173ffffffffffffffffffffffffffffffffffffffff167f8be0079c531659141344cd1fd0a4f28419497f9722a3daafe3b4186f6b6457e060405160405180910390a35050565b8173ffffffffffffffffffffffffffffffffffffffff168373ffffffffffffffffffffffffffffffffffffffff1603612119576040517f08c379a000000000000000000000000000000000000000000000000000000000815260040161211090614611565b60405180910390fd5b80600560008573ffffffffffffffffffffffffffffffffffffffff1673ffffffffffffffffffffffffffffffffffffffff16815260200190815260200160002060008473ffffffffffffffffffffffffffffffffffffffff1673ffffffffffffffffffffffffffffffffffffffff16815260200190815260200160002060006101000a81548160ff0219169083151502179055508173ffffffffffffffffffffffffffffffffffffffff168373ffffffffffffffffffffffffffffffffffffffff167f17307eab39ab6107e8899845ad3d59bd9653f200f220920489ca2b5937696c318360405161220a919061300a565b60405180910390a3505050565b612222848484611d15565b61222e8484848461262a565b61226d576040517f08c379a0000000000000000000000000000000000000000000000000000000008152600401612264906146a3565b60405180910390fd5b50505050565b61228d8282604051806020016040528060008152506127b1565b5050565b61229a82611af4565b6122d9576040517f08c379a00000000000000000000000000000000000000000000000000000000081526004016122d090614735565b60405180910390fd5b80600660008481526020019081526020016000209080519060200190612300929190612eb3565b505050565b60008111612348576040517f08c379a000000000000000000000000000000000000000000000000000000000815260040161233f906147a1565b60405180910390fd5b60405180608001604052808381526020018281526020013373ffffffffffffffffffffffffffffffffffffffff16815260200160011515815250600f6000848152602001908152602001600020600082015181600001556020820151816001015560408201518160020160006101000a81548173ffffffffffffffffffffffffffffffffffffffff021916908373ffffffffffffffffffffffffffffffffffffffff16021790555060608201518160020160146101000a81548160ff0219169083151502179055509050507f470031062672bc0246e132c723a729c4676710ec663a29e86c88678032daddea828233600160405161244994939291906147c1565b60405180910390a15050565b606060405180602001604052806000815250905090565b606061247782611af4565b6124b6576040517f08c379a00000000000000000000000000000000000000000000000000000000081526004016124ad90614878565b60405180910390fd5b60006124c0612455565b905060008151116124e0576040518060200160405280600081525061250b565b806124ea8461280c565b6040516020016124fb9291906142b9565b6040516020818303038152906040525b915050919050565b61251e83838361296c565b600073ffffffffffffffffffffffffffffffffffffffff168373ffffffffffffffffffffffffffffffffffffffff16036125605761255b81612971565b61259f565b8173ffffffffffffffffffffffffffffffffffffffff168373ffffffffffffffffffffffffffffffffffffffff161461259e5761259d83826129ba565b5b5b600073ffffffffffffffffffffffffffffffffffffffff168273ffffffffffffffffffffffffffffffffffffffff16036125e1576125dc81612b27565b612620565b8273ffffffffffffffffffffffffffffffffffffffff168273ffffffffffffffffffffffffffffffffffffffff161461261f5761261e8282612bf8565b5b5b505050565b505050565b600061264b8473ffffffffffffffffffffffffffffffffffffffff16612c77565b156127a4578373ffffffffffffffffffffffffffffffffffffffff1663150b7a02612674611b60565b8786866040518563ffffffff1660e01b815260040161269694939291906148ed565b6020604051808303816000875af19250505080156126d257506040513d601f19601f820116820180604052508101906126cf919061494e565b60015b612754573d8060008114612702576040519150601f19603f3d011682016040523d82523d6000602084013e612707565b606091505b50600081510361274c576040517f08c379a0000000000000000000000000000000000000000000000000000000008152600401612743906146a3565b60405180910390fd5b805181602001fd5b63150b7a0260e01b7bffffffffffffffffffffffffffffffffffffffffffffffffffffffff1916817bffffffffffffffffffffffffffffffffffffffffffffffffffffffff1916149150506127a9565b600190505b949350505050565b6127bb8383612c9a565b6127c8600084848461262a565b612807576040517f08c379a00000000000000000000000000000000000000000000000000000000081526004016127fe906146a3565b60405180910390fd5b505050565b606060008203612853576040518060400160405280600181526020017f30000000000000000000000000000000000000000000000000000000000000008152509050612967565b600082905060005b6000821461288557808061286e90613e92565b915050600a8261287e91906149aa565b915061285b565b60008167ffffffffffffffff8111156128a1576128a0613425565b5b6040519080825280601f01601f1916602001820160405280156128d35781602001600182028036833780820191505090505b5090505b60008514612960576001826128ec9190614525565b9150600a856128fb91906149db565b60306129079190613e3c565b60f81b81838151811061291d5761291c613dde565b5b60200101907effffffffffffffffffffffffffffffffffffffffffffffffffffffffffffff1916908160001a905350600a8561295991906149aa565b94506128d7565b8093505050505b919050565b505050565b601080549050600e600083815260200190815260200160002081905550601081908060018154018082558091505060019003906000526020600020016000909190919091505550565b600060016129c7846111e7565b6129d19190614525565b90506000600c6000848152602001908152602001600020549050818114612ab6576000600d60008673ffffffffffffffffffffffffffffffffffffffff1673ffffffffffffffffffffffffffffffffffffffff168152602001908152602001600020600084815260200190815260200160002054905080600d60008773ffffffffffffffffffffffffffffffffffffffff1673ffffffffffffffffffffffffffffffffffffffff16815260200190815260200160002060008481526020019081526020016000208190555081600c600083815260200190815260200160002081905550505b600c600084815260200190815260200160002060009055600d60008573ffffffffffffffffffffffffffffffffffffffff1673ffffffffffffffffffffffffffffffffffffffff16815260200190815260200160002060008381526020019081526020016000206000905550505050565b60006001601080549050612b3b9190614525565b90506000600e6000848152602001908152602001600020549050600060108381548110612b6b57612b6a613dde565b5b906000526020600020015490508060108381548110612b8d57612b8c613dde565b5b906000526020600020018190555081600e600083815260200190815260200160002081905550600e6000858152602001908152602001600020600090556010805480612bdc57612bdb614a0c565b5b6001900381819060005260206000200160009055905550505050565b6000612c03836111e7565b905081600d60008573ffffffffffffffffffffffffffffffffffffffff1673ffffffffffffffffffffffffffffffffffffffff16815260200190815260200160002060008381526020019081526020016000208190555080600c600084815260200190815260200160002081905550505050565b6000808273ffffffffffffffffffffffffffffffffffffffff163b119050919050565b600073ffffffffffffffffffffffffffffffffffffffff168273ffffffffffffffffffffffffffffffffffffffff1603612d09576040517f08c379a0000000000000000000000000000000000000000000000000000000008152600401612d0090614a87565b60405180910390fd5b612d1281611af4565b15612d52576040517f08c379a0000000000000000000000000000000000000000000000000000000008152600401612d4990614af3565b60405180910390fd5b612d5e60008383612513565b6001600360008473ffffffffffffffffffffffffffffffffffffffff1673ffffffffffffffffffffffffffffffffffffffff1681526020019081526020016000206000828254612dae9190613e3c565b92505081905550816002600083815260200190815260200160002060006101000a81548173ffffffffffffffffffffffffffffffffffffffff021916908373ffffffffffffffffffffffffffffffffffffffff160217905550808273ffffffffffffffffffffffffffffffffffffffff16600073ffffffffffffffffffffffffffffffffffffffff167fddf252ad1be2c89b69c2b068fc378daa952ba7f163c4a11628f55a4df523b3ef60405160405180910390a4612e6f60008383612625565b5050565b60405180608001604052806000815260200160008152602001600073ffffffffffffffffffffffffffffffffffffffff1681526020016000151581525090565b828054612ebf90613891565b90600052602060002090601f016020900481019282612ee15760008555612f28565b82601f10612efa57805160ff1916838001178555612f28565b82800160010185558215612f28579182015b82811115612f27578251825591602001919060010190612f0c565b5b509050612f359190612f39565b5090565b5b80821115612f52576000816000905550600101612f3a565b5090565b6000604051905090565b600080fd5b600080fd5b60007fffffffff0000000000000000000000000000000000000000000000000000000082169050919050565b612f9f81612f6a565b8114612faa57600080fd5b50565b600081359050612fbc81612f96565b92915050565b600060208284031215612fd857612fd7612f60565b5b6000612fe684828501612fad565b91505092915050565b60008115159050919050565b61300481612fef565b82525050565b600060208201905061301f6000830184612ffb565b92915050565b600081519050919050565b600082825260208201905092915050565b60005b8381101561305f578082015181840152602081019050613044565b8381111561306e576000848401525b50505050565b6000601f19601f8301169050919050565b600061309082613025565b61309a8185613030565b93506130aa818560208601613041565b6130b381613074565b840191505092915050565b600060208201905081810360008301526130d88184613085565b905092915050565b6000819050919050565b6130f3816130e0565b81146130fe57600080fd5b50565b600081359050613110816130ea565b92915050565b60006020828403121561312c5761312b612f60565b5b600061313a84828501613101565b91505092915050565b600073ffffffffffffffffffffffffffffffffffffffff82169050919050565b600061316e82613143565b9050919050565b61317e81613163565b82525050565b60006020820190506131996000830184613175565b92915050565b6131a881613163565b81146131b357600080fd5b50565b6000813590506131c58161319f565b92915050565b600080604083850312156131e2576131e1612f60565b5b60006131f0858286016131b6565b925050602061320185828601613101565b9150509250929050565b613214816130e0565b82525050565b600060208201905061322f600083018461320b565b92915050565b6000806040838503121561324c5761324b612f60565b5b600061325a85828601613101565b925050602061326b85828601613101565b9150509250929050565b60008060006060848603121561328e5761328d612f60565b5b600061329c868287016131b6565b93505060206132ad868287016131b6565b92505060406132be86828701613101565b9150509250925092565b600081519050919050565b600082825260208201905092915050565b6000819050602082019050919050565b6132fd816130e0565b82525050565b61330c81613163565b82525050565b61331b81612fef565b82525050565b60808201600082015161333760008501826132f4565b50602082015161334a60208501826132f4565b50604082015161335d6040850182613303565b5060608201516133706060850182613312565b50505050565b60006133828383613321565b60808301905092915050565b6000602082019050919050565b60006133a6826132c8565b6133b081856132d3565b93506133bb836132e4565b8060005b838110156133ec5781516133d38882613376565b97506133de8361338e565b9250506001810190506133bf565b5085935050505092915050565b60006020820190508181036000830152613413818461339b565b905092915050565b600080fd5b600080fd5b7f4e487b7100000000000000000000000000000000000000000000000000000000600052604160045260246000fd5b61345d82613074565b810181811067ffffffffffffffff8211171561347c5761347b613425565b5b80604052505050565b600061348f612f56565b905061349b8282613454565b919050565b600067ffffffffffffffff8211156134bb576134ba613425565b5b6134c482613074565b9050602081019050919050565b82818337600083830152505050565b60006134f36134ee846134a0565b613485565b90508281526020810184848401111561350f5761350e613420565b5b61351a8482856134d1565b509392505050565b600082601f8301126135375761353661341b565b5b81356135478482602086016134e0565b91505092915050565b60006020828403121561356657613565612f60565b5b600082013567ffffffffffffffff81111561358457613583612f65565b5b61359084828501613522565b91505092915050565b6080820160008201516135af60008501826132f4565b5060208201516135c260208501826132f4565b5060408201516135d56040850182613303565b5060608201516135e86060850182613312565b50505050565b60006080820190506136036000830184613599565b92915050565b60006020828403121561361f5761361e612f60565b5b600061362d848285016131b6565b91505092915050565b61363f81612fef565b811461364a57600080fd5b50565b60008135905061365c81613636565b92915050565b6000806040838503121561367957613678612f60565b5b6000613687858286016131b6565b92505060206136988582860161364d565b9150509250929050565b600067ffffffffffffffff8211156136bd576136bc613425565b5b6136c682613074565b9050602081019050919050565b60006136e66136e1846136a2565b613485565b90508281526020810184848401111561370257613701613420565b5b61370d8482856134d1565b509392505050565b600082601f83011261372a5761372961341b565b5b813561373a8482602086016136d3565b91505092915050565b6000806000806080858703121561375d5761375c612f60565b5b600061376b878288016131b6565b945050602061377c878288016131b6565b935050604061378d87828801613101565b925050606085013567ffffffffffffffff8111156137ae576137ad612f65565b5b6137ba87828801613715565b91505092959194509250565b600080604083850312156137dd576137dc612f60565b5b600083013567ffffffffffffffff8111156137fb576137fa612f65565b5b61380785828601613522565b925050602061381885828601613101565b9150509250929050565b6000806040838503121561383957613838612f60565b5b6000613847858286016131b6565b9250506020613858858286016131b6565b9150509250929050565b7f4e487b7100000000000000000000000000000000000000000000000000000000600052602260045260246000fd5b600060028204905060018216806138a957607f821691505b6020821081036138bc576138bb613862565b5b50919050565b7f4552433732313a20617070726f76656420717565727920666f72206e6f6e657860008201527f697374656e7420746f6b656e0000000000000000000000000000000000000000602082015250565b600061391e602c83613030565b9150613929826138c2565b604082019050919050565b6000602082019050818103600083015261394d81613911565b9050919050565b7f4552433732313a20617070726f76616c20746f2063757272656e74206f776e6560008201527f7200000000000000000000000000000000000000000000000000000000000000602082015250565b60006139b0602183613030565b91506139bb82613954565b604082019050919050565b600060208201905081810360008301526139df816139a3565b9050919050565b7f4552433732313a20617070726f76652063616c6c6572206973206e6f74206f7760008201527f6e6572206e6f7220617070726f76656420666f7220616c6c0000000000000000602082015250565b6000613a42603883613030565b9150613a4d826139e6565b604082019050919050565b60006020820190508181036000830152613a7181613a35565b9050919050565b7f596f7520617265206e6f74206f776e6572206f662074686973206e6674000000600082015250565b6000613aae601d83613030565b9150613ab982613a78565b602082019050919050565b60006020820190508181036000830152613add81613aa1565b9050919050565b7f4974656d20697320616c7265616479206f6e2073616c65000000000000000000600082015250565b6000613b1a601783613030565b9150613b2582613ae4565b602082019050919050565b60006020820190508181036000830152613b4981613b0d565b9050919050565b7f5072696365206d75737420626520657175616c20746f206c697374696e67207060008201527f7269636500000000000000000000000000000000000000000000000000000000602082015250565b6000613bac602483613030565b9150613bb782613b50565b604082019050919050565b60006020820190508181036000830152613bdb81613b9f565b9050919050565b7f4552433732313a207472616e736665722063616c6c6572206973206e6f74206f60008201527f776e6572206e6f7220617070726f766564000000000000000000000000000000602082015250565b6000613c3e603183613030565b9150613c4982613be2565b604082019050919050565b60006020820190508181036000830152613c6d81613c31565b9050919050565b7f596f7520616c7265616479206f776e2074686973204e46540000000000000000600082015250565b6000613caa601883613030565b9150613cb582613c74565b602082019050919050565b60006020820190508181036000830152613cd981613c9d565b9050919050565b7f5375626d6974207468652061736b696e67207072696365206f6620746865204e60008201527f4654000000000000000000000000000000000000000000000000000000000000602082015250565b6000613d3c602283613030565b9150613d4782613ce0565b604082019050919050565b60006020820190508181036000830152613d6b81613d2f565b9050919050565b7f496e646578206f7574206f6620626f756e647300000000000000000000000000600082015250565b6000613da8601383613030565b9150613db382613d72565b602082019050919050565b60006020820190508181036000830152613dd781613d9b565b9050919050565b7f4e487b7100000000000000000000000000000000000000000000000000000000600052603260045260246000fd5b7f4e487b7100000000000000000000000000000000000000000000000000000000600052601160045260246000fd5b6000613e47826130e0565b9150613e52836130e0565b9250827fffffffffffffffffffffffffffffffffffffffffffffffffffffffffffffffff03821115613e8757613e86613e0d565b5b828201905092915050565b6000613e9d826130e0565b91507fffffffffffffffffffffffffffffffffffffffffffffffffffffffffffffffff8203613ecf57613ece613e0d565b5b600182019050919050565b600081905092915050565b6000613ef082613025565b613efa8185613eda565b9350613f0a818560208601613041565b80840191505092915050565b6000613f228284613ee5565b915081905092915050565b7f4552433732313a206f776e657220717565727920666f72206e6f6e657869737460008201527f656e7420746f6b656e0000000000000000000000000000000000000000000000602082015250565b6000613f89602983613030565b9150613f9482613f2d565b604082019050919050565b60006020820190508181036000830152613fb881613f7c565b9050919050565b7f4552433732313a2062616c616e636520717565727920666f7220746865207a6560008201527f726f206164647265737300000000000000000000000000000000000000000000602082015250565b600061401b602a83613030565b915061402682613fbf565b604082019050919050565b6000602082019050818103600083015261404a8161400e565b9050919050565b7f4f776e61626c653a2063616c6c6572206973206e6f7420746865206f776e6572600082015250565b6000614087602083613030565b915061409282614051565b602082019050919050565b600060208201905081810360008301526140b68161407a565b9050919050565b7f5072696365206d757374206265206174206c6561737420312077656900000000600082015250565b60006140f3601c83613030565b91506140fe826140bd565b602082019050919050565b60006020820190508181036000830152614122816140e6565b9050919050565b7f546f6b656e2055524920616c7265616479206578697374730000000000000000600082015250565b600061415f601883613030565b915061416a82614129565b602082019050919050565b6000602082019050818103600083015261418e81614152565b9050919050565b7f4d6573736167652076616c7565206d75737420626520657175616c20746f207460008201527f6865206c697374696e6720707269636500000000000000000000000000000000602082015250565b60006141f1603083613030565b91506141fc82614195565b604082019050919050565b60006020820190508181036000830152614220816141e4565b9050919050565b7f45524337323155524953746f726167653a2055524920717565727920666f722060008201527f6e6f6e6578697374656e7420746f6b656e000000000000000000000000000000602082015250565b6000614283603183613030565b915061428e82614227565b604082019050919050565b600060208201905081810360008301526142b281614276565b9050919050565b60006142c58285613ee5565b91506142d18284613ee5565b91508190509392505050565b7f4f776e61626c653a206e6577206f776e657220697320746865207a65726f206160008201527f6464726573730000000000000000000000000000000000000000000000000000602082015250565b6000614339602683613030565b9150614344826142dd565b604082019050919050565b600060208201905081810360008301526143688161432c565b9050919050565b7f4552433732313a206f70657261746f7220717565727920666f72206e6f6e657860008201527f697374656e7420746f6b656e0000000000000000000000000000000000000000602082015250565b60006143cb602c83613030565b91506143d68261436f565b604082019050919050565b600060208201905081810360008301526143fa816143be565b9050919050565b7f4552433732313a207472616e736665722066726f6d20696e636f72726563742060008201527f6f776e6572000000000000000000000000000000000000000000000000000000602082015250565b600061445d602583613030565b915061446882614401565b604082019050919050565b6000602082019050818103600083015261448c81614450565b9050919050565b7f4552433732313a207472616e7366657220746f20746865207a65726f2061646460008201527f7265737300000000000000000000000000000000000000000000000000000000602082015250565b60006144ef602483613030565b91506144fa82614493565b604082019050919050565b6000602082019050818103600083015261451e816144e2565b9050919050565b6000614530826130e0565b915061453b836130e0565b92508282101561454e5761454d613e0d565b5b828203905092915050565b7f436f756e7465723a2064656372656d656e74206f766572666c6f770000000000600082015250565b600061458f601b83613030565b915061459a82614559565b602082019050919050565b600060208201905081810360008301526145be81614582565b9050919050565b7f4552433732313a20617070726f766520746f2063616c6c657200000000000000600082015250565b60006145fb601983613030565b9150614606826145c5565b602082019050919050565b6000602082019050818103600083015261462a816145ee565b9050919050565b7f4552433732313a207472616e7366657220746f206e6f6e20455243373231526560008201527f63656976657220696d706c656d656e7465720000000000000000000000000000602082015250565b600061468d603283613030565b915061469882614631565b604082019050919050565b600060208201905081810360008301526146bc81614680565b9050919050565b7f45524337323155524953746f726167653a2055524920736574206f66206e6f6e60008201527f6578697374656e7420746f6b656e000000000000000000000000000000000000602082015250565b600061471f602e83613030565b915061472a826146c3565b604082019050919050565b6000602082019050818103600083015261474e81614712565b9050919050565b7f5072696365206d757374206265206174206c65617374206f6e65207765690000600082015250565b600061478b601e83613030565b915061479682614755565b602082019050919050565b600060208201905081810360008301526147ba8161477e565b9050919050565b60006080820190506147d6600083018761320b565b6147e3602083018661320b565b6147f06040830185613175565b6147fd6060830184612ffb565b95945050505050565b7f4552433732314d657461646174613a2055524920717565727920666f72206e6f60008201527f6e6578697374656e7420746f6b656e0000000000000000000000000000000000602082015250565b6000614862602f83613030565b915061486d82614806565b604082019050919050565b6000602082019050818103600083015261489181614855565b9050919050565b600081519050919050565b600082825260208201905092915050565b60006148bf82614898565b6148c981856148a3565b93506148d9818560208601613041565b6148e281613074565b840191505092915050565b60006080820190506149026000830187613175565b61490f6020830186613175565b61491c604083018561320b565b818103606083015261492e81846148b4565b905095945050505050565b60008151905061494881612f96565b92915050565b60006020828403121561496457614963612f60565b5b600061497284828501614939565b91505092915050565b7f4e487b7100000000000000000000000000000000000000000000000000000000600052601260045260246000fd5b60006149b5826130e0565b91506149c0836130e0565b9250826149d0576149cf61497b565b5b828204905092915050565b60006149e6826130e0565b91506149f1836130e0565b925082614a0157614a0061497b565b5b828206905092915050565b7f4e487b7100000000000000000000000000000000000000000000000000000000600052603160045260246000fd5b7f4552433732313a206d696e7420746f20746865207a65726f2061646472657373600082015250565b6000614a71602083613030565b9150614a7c82614a3b565b602082019050919050565b60006020820190508181036000830152614aa081614a64565b9050919050565b7f4552433732313a20746f6b656e20616c7265616479206d696e74656400000000600082015250565b6000614add601c83613030565b9150614ae882614aa7565b602082019050919050565b60006020820190508181036000830152614b0c81614ad0565b905091905056fea2646970667358221220bc6e5b83119019c69e5534ca6d034a28a9c79f0a44ecc4b3f9f0686a5ead5b8964736f6c634300080e0033",
  "immutableReferences": {},
  "source": "// SPDX-License-Identifier: MIT\npragma solidity >=0.4.22 <0.9.0;\n\nimport \"@openzeppelin/contracts/token/ERC721/extensions/ERC721URIStorage.sol\";\nimport \"@openzeppelin/contracts/utils/Counters.sol\";\nimport \"@openzeppelin/contracts/access/Ownable.sol\";\n\ncontract NftMarket is ERC721URIStorage, Ownable {\n   \n    // For incrementing and decrementing \n    using Counters for Counters.Counter;\n\n    // NFT Object structure\n    struct NftItem {\n        uint tokenId;\n        uint price;\n        address creator;\n        bool isListed;\n    }\n    \n    // @dev: counters are incrementer/decrementer helpers\n    // @return: _listedItems - how many nfts are for sale on the market \n    // @return: _tokenIds - the total items that have been created from the smart contract. \n    Counters.Counter private _listedItems;\n    Counters.Counter private _tokenIds;\n\n    // Price for creating and NFT \n    // @dev: This price can be swapped later by an administrator\n    uint public listingPrice = 0.025 ether;\n    \n    // Mapping: indexId => true/false\n    mapping(string => bool) private _usedTokenURIs;\n    // Mapping: Index of NFTs => Inividual NftItem by tokenId Id 3,6,8,\n    mapping(uint => uint) private _idToOwnedIndex;\n    // Mapping: OwnerAddress => Index => Nft Token id\n    mapping(address => mapping(uint => uint)) private _ownedTokens;\n    // Mapping index of to TokenIds\n    mapping(uint => uint) private _idToNftIndex;\n    // Mapping: NFT id mapped to NFTItem \n    mapping(uint => NftItem) private _idToNftItem;\n\n    // Empty array to stores allNfts\n    uint256[] private _allNfts;\n\n    // NFT Creation event \n    event NftItemCreated (\n        uint tokenId,\n        uint price, \n        address creator,\n        bool isListed\n    );\n\n    // Total supply of Nft's in the marketplace\n    function totalSupply() public view returns (uint) {\n        return _allNfts.length;\n    }\n\n    // Get an Nft by index\n    function tokenByIndex(uint index) public view returns (uint){\n        require(index < totalSupply(), \"Index out of bounds\");\n        return _allNfts[index];\n    }\n\n    // Get the owner of the token by index\n    function tokenOfOwnerByIndex(address owner, uint index) public view returns (uint) {\n        require(index < ERC721.balanceOf(owner), \"Index out of bounds\");\n        return _ownedTokens[owner][index];\n    }\n\n    function getAllNftsOnSale() public view returns (NftItem[] memory) {\n        // Get total supply\n        uint allItemsCounts = totalSupply();\n        // Start at #1 => 0 \n        uint currentIndex = 0;\n        // Make items a storage container for NFts and their stuff \n        // @ dev this is an empty arrray .current() specifies the current amount in the array\n        NftItem[] memory items = new NftItem[](_listedItems.current());\n\n        // Loop through the total supply of of Nfts     \n        for (uint i = 0; i < allItemsCounts; i++) {\n            // Return the nfts according to id\n            uint tokenId = tokenByIndex(i);\n            // Store the NFT based on tokenId\n            NftItem storage item = _idToNftItem[tokenId];\n\n            // Check each item listed if isListed is true = for sale \n            // OR false = not for sale\n            if (item.isListed == true) {\n                // If so set the current index to the item thats true\n                items[currentIndex] = item;\n                // Add that time/id to the list of isListed items to be returned\n                currentIndex += 1;\n            }\n        }\n        // Return all items that are isListed as true \n        return items;\n    }\n\n    // Return Owneres NFTs by address and index\n    function getOwnedNfts() public view returns (NftItem[] memory) {\n        uint ownedItemsCount = ERC721.balanceOf(msg.sender);\n        NftItem[] memory items = new NftItem[](ownedItemsCount);\n\n        for (uint i = 0; i < ownedItemsCount; i++) {\n            uint tokenId = tokenOfOwnerByIndex(msg.sender, i);\n            NftItem storage item = _idToNftItem[tokenId];\n            items[i] = item;\n        }\n        return items;\n    }\n\n    constructor() ERC721(\"FuzzAlinesNFT\", \"FZLN\") {}\n    \n    // Set the listing price \n    function setListingPrice(uint newPrice ) external onlyOwner \n    {\n        require(newPrice > 0, \"Price must be at least 1 wei\");\n        listingPrice = newPrice;\n    }\n\n\n    // Get an Nft Item by id\n    function getNftItem(uint tokenId) public view returns \n        (NftItem memory) {\n            return _idToNftItem[tokenId];\n        }\n\n    // Retrieve the amount of nfts generated at present time\n    function listedItemCount() public view returns (uint) {\n        return _listedItems.current();\n    }\n\n    // Verify token existence \n    function tokenURIExists(string memory tokenURI) public view returns (bool) {\n        return _usedTokenURIs[tokenURI] == true;\n    }\n\n    // Remove token from \n    // function burnToken(uint tokenId) public {\n    //     _burn(tokenId);\n    // }\n\n    // Mint token (NFT) - takes token uri and its price \n    function mintToken(string memory tokenURI, uint price) public payable returns (uint) {\n        \n        // Token must be unique \n        require(!tokenURIExists(tokenURI), \"Token URI already exists\");\n\n        // User must pay the listing price to mint an NFT\n        require(msg.value == listingPrice, \"Message value must be equal to the listing price\");\n        \n        _tokenIds.increment();\n        _listedItems.increment();\n        _usedTokenURIs[tokenURI] = true;\n\n        // Get the token id of the current nft\n        uint newTokenId = _tokenIds.current();\n\n        // Pass in inputs for minting and incrementing\n        _safeMint(msg.sender, newTokenId); // mint token from this address\n        _setTokenURI(newTokenId, tokenURI); // attach token URI to id\n        _createNftItem(newTokenId, price); // attach price and generate token\n\n        return newTokenId;\n    }\n   \n    // Purchase an NFT from contract\n    function buyNft(uint tokenId) public payable {\n        \n        uint price = _idToNftItem[tokenId].price;\n        address owner = ERC721.ownerOf(tokenId);\n       \n        require(msg.sender != owner, \"You already own this NFT\");\n        require(msg.value == price, \"Submit the asking price of the NFT\");\n\n        _idToNftItem[tokenId].isListed =false;\n        _listedItems.decrement();\n\n        _transfer(owner, msg.sender, tokenId);\n        payable(owner).transfer(msg.value);\n\n    }\n\n    // Generate an NFT Item \n    function _createNftItem( uint tokenId, uint price) private {\n            require(price > 0, \"Price must be at least one wei\");\n            \n            _idToNftItem[tokenId] = NftItem(\n                tokenId,\n                price,\n                msg.sender,\n                true\n            );  \n            emit NftItemCreated(tokenId, price, msg.sender, true );\n        }\n\n\n    // Place NFT up for Sale\n    function placeNftOnSale(uint tokenId, uint newPrice) public payable  {\n        require(ERC721.ownerOf(tokenId) == msg.sender, \"You are not owner of this nft\"); //must be owner\n        require(_idToNftItem[tokenId].isListed == false, \"Item is already on sale\");\n        require(msg.value == listingPrice, \"Price must be equal to listing price\");\n\n            _idToNftItem[tokenId].isListed == true;\n            _idToNftItem[tokenId].price = newPrice;\n            _listedItems.increment();\n    }\n\n\n    // Before a transfer check to make sure that the token is from owner account[0]\n    function _beforeTokenTransfer(  \n        address from, \n        address to, \n        uint tokenId\n    ) internal virtual override {\n\n        // _beforeTokenTranfer is from the ERC721.sol.\n        super._beforeTokenTransfer(from, to, tokenId);\n\n        if (from == address(0)) { \n            _addTokenToAllTokensEnumeration(tokenId);\n        } else if (from != to) {\n            _removeTokenFromOwnerEnumeration(from, tokenId);\n        }\n\n        if (to == address(0)) {\n            _removeTokenFromAllTokensEnumeration(tokenId);\n        } else if (to != from) {\n            _addTokenToOwnerEnumeration(to, tokenId);\n        }\n    }\n\n    // Add token to all Nfts\n    function _addTokenToAllTokensEnumeration(uint tokenId) private {\n        _idToNftIndex[tokenId] = _allNfts.length;\n        _allNfts.push(tokenId);\n    }\n\n    // Add token to list of owners\n    function _addTokenToOwnerEnumeration(address to, uint tokenId) private {\n        // Retrieve number of NFTs a user owns\n        uint length = ERC721.balanceOf(to);\n        // Map token to index and and owner \n        _ownedTokens[to][length] = tokenId; // addr => uint(how many) => uint(specific token id)\n        _idToOwnedIndex[tokenId] = length;  // uint(how many) => uint(specific token id)\n    }\n\n    // @dev \n    // _ownedTokens MAPPING START\n    // 0x2C => 0 => 1\n    //         1 => 2\n    //         2 => 3\n    // -----------------------    \n    // _idToOwnedIndex MAPPING START\n    // ID   INDEX\n    // 1 => 0\n    // 2 => 1 \n    // 3 => 2\n        \n    // Remove tokens from list of owners\n    function _removeTokenFromOwnerEnumeration(address from, uint tokenId) private { \n\n        uint lastTokenIndex= ERC721.balanceOf(from) -1; // A. 2\n        uint tokenIndex = _idToOwnedIndex[tokenId]; // A. 1 \n\n        if (tokenIndex != lastTokenIndex) { \n            uint lastTokenId = _ownedTokens[from][lastTokenIndex]; // 3(id) => 2(last token index)\n\n        // Remapping _ownedTokens\n        // 3 is remapped to 2nd index 1:\n        // 0 => 1\n        // 1 => 3\n        \n        _ownedTokens[from][tokenIndex] = lastTokenId; \n        \n        // Remapping _idToOwnedIndex\n        // 3 is remapped to 2nd index 1:\n        \n        // ID   INDEX\n        // 1 => 0\n        // 3 => 1\n\n        _idToOwnedIndex[lastTokenId] = tokenIndex;  // 1\n        }   \n        \n        // else delete token id 2 and \n        delete _idToOwnedIndex[tokenId]; // delete id 2 \n        delete _ownedTokens[from][lastTokenIndex]; // delete lastTokenIndex => 2\n    }\n\n    function _removeTokenFromAllTokensEnumeration(uint tokenId) private {\n        uint lastTokenIndex = _allNfts.length -1; \n        uint tokenIndex = _idToNftIndex[tokenId]; \n        uint lastTokenId = _allNfts[lastTokenIndex]; \n\n        _allNfts[tokenIndex] = lastTokenId;\n        _idToNftIndex[lastTokenId] = tokenIndex;\n\n        delete _idToNftIndex[tokenId];\n        _allNfts.pop();\n    }\n}\n\n",
  "sourcePath": "/Users/jamesahnking/Documents/reactprojects/004_nftmarketplace/nftmarketplace/contracts/NftMarket.sol",
  "compiler": {
    "name": "solc",
    "version": "0.8.14+commit.80d49f37.Emscripten.clang"
  },
  "schemaVersion": "3.4.7",
  "updatedAt": "2022-07-25T16:24:12.919Z",
  "networkType": "ethereum",
  "devdoc": {
    "kind": "dev",
    "methods": {
      "approve(address,uint256)": {
        "details": "See {IERC721-approve}."
      },
      "balanceOf(address)": {
        "details": "See {IERC721-balanceOf}."
      },
      "getApproved(uint256)": {
        "details": "See {IERC721-getApproved}."
      },
      "isApprovedForAll(address,address)": {
        "details": "See {IERC721-isApprovedForAll}."
      },
      "name()": {
        "details": "See {IERC721Metadata-name}."
      },
      "owner()": {
        "details": "Returns the address of the current owner."
      },
      "ownerOf(uint256)": {
        "details": "See {IERC721-ownerOf}."
      },
      "renounceOwnership()": {
        "details": "Leaves the contract without owner. It will not be possible to call `onlyOwner` functions anymore. Can only be called by the current owner. NOTE: Renouncing ownership will leave the contract without an owner, thereby removing any functionality that is only available to the owner."
      },
      "safeTransferFrom(address,address,uint256)": {
        "details": "See {IERC721-safeTransferFrom}."
      },
      "safeTransferFrom(address,address,uint256,bytes)": {
        "details": "See {IERC721-safeTransferFrom}."
      },
      "setApprovalForAll(address,bool)": {
        "details": "See {IERC721-setApprovalForAll}."
      },
      "supportsInterface(bytes4)": {
        "details": "See {IERC165-supportsInterface}."
      },
      "symbol()": {
        "details": "See {IERC721Metadata-symbol}."
      },
      "tokenURI(uint256)": {
        "details": "See {IERC721Metadata-tokenURI}."
      },
      "transferFrom(address,address,uint256)": {
        "details": "See {IERC721-transferFrom}."
      },
      "transferOwnership(address)": {
        "details": "Transfers ownership of the contract to a new account (`newOwner`). Can only be called by the current owner."
      }
    },
    "version": 1
  },
  "userdoc": {
    "kind": "user",
    "methods": {},
    "version": 1
  }
}